:1000000000800020BD010000D531000099310000C2
:1000100099310000993100009931000099310000B8
:10002000993100009931000099310000D53100006C
:10003000D531000099310000D53100008931000030
:10004000D5310000D5310000D5310000D531000098
:10005000D5310000D5310000D5310000D531000088
:10006000D5310000D5310000D5310000D531000078
:10007000D5310000D5310000D5310000D531000068
:10008000D5310000D5310000D5310000D531000058
:10009000D5310000D5310000D5310000D531000048
:1000A000E9270000D5310000D5310000D53100002E
:1000B000D5310000D5310000D5310000D531000028
:1000C000D5310000D5310000D5310000D531000018
:1000D000D5310000D5310000D5310000D531000008
:1000E000D5310000D5310000D5310000D5310000F8
:1000F000D5310000F1490000D5310000ED4F00007E
:10010000D53100000D550000D5310000D53100007B
:10011000D5310000D5310000D5310000D5310000C7
:10012000D5310000D5310000D5310000D5310000B7
:10013000D5310000D5310000D5310000D5310000A7
:10014000D5310000D5310000D5310000D531000097
:10015000D5310000D5310000D5310000D531000087
:10016000D531000081390000D5310000D5310000C3
:10017000D5310000D5310000D5310000D531000067
:10018000D5310000D5310000D5310000D531000057
:10019000D5310000D5310000D5310000D531000047
:1001A000D5310000D5310000D5310000D531000037
:1001B000D5310000D5310000D5310000574B4CF24D
:1001C000205210B51A804DF628121A8000BF00BFC9
:1001D00003F004F8524B4FF010621A60514A9A60D3
:1001E000514ADA60A3F53043203B1A6812F480725A
:1001F00004D14E490A604FF4A8521A604C4B1A7849
:10020000110703D51A7842F008021A70494B4A4C7C
:100210004A482A221A704A4A00239918A14203D256
:10022000195899500433F8E7464B474900228B424E
:1002300002D243F8042BFAE74448454900235A58B0
:100240001A500433B3F5DE7FF9D1424B424A802184
:1002500003F8011B9342FBD1404B3C4A1A60404BD0
:100260000A221A70A3F5805324225A70A0221A7011
:100270009A799207FCD59A79D406FCD4394A9379B5
:1002800003F00C03082B374BF9D103221A714022DB
:100290005A719A799006FCD5324A9179314B4906C8
:1002A000FBD5314A314911600221516020221A7078
:1002B0009A7902F00C020C2AFAD12D4B2D4A1A60C1
:1002C0002D4B45F6BF521A6000225A60072243F8B0
:1002D000042C2A4AC3F80C2D62B603F013FA134B10
:1002E0001B68DA0705D5264803F070F9254B264A26
:1002F0001A60264B1B785B0609D5224C224A2368DC
:10030000934204D11E4803F061F90023236006F0F4
:100310001DFD02F069FF04F07BF8FEE70E200540AA
:1003200030800440823F04000100002B14D00340C1
:1003300002D0074000E007409090FF1FA4C00000DB
:100340006087FF1F9090FF1F9497FF1F0082FF1F81
:100350000000000000E400E05FE400E008ED00E0E1
:100360000050064000400640448004400000033333
:1003700004800440C010050014E000E000002020CC
:1003800034281E581CE00340A5C3945A00F00740CF
:10039000FFFFFFFFFFFFFFFFFFFFFFFFFFFFFFFF6D
:1003A000FFFFFFFFFFFFFFFFFFFFFFFFFFFFFFFF5D
:1003B000FFFFFFFFFFFFFFFFFFFFFFFFFFFFFFFF4D
:1003C000FFFFFFFFFFFFFFFFFFFFFFFFFFFFFFFF3D
:1003D000FFFFFFFFFFFFFFFFFFFFFFFFFFFFFFFF2D
:1003E000FFFFFFFFFFFFFFFFFFFFFFFFFFFFFFFF1D
:1003F000FFFFFFFFFFFFFFFFFFFFFFFFFFFFFFFF0D
:10040000FFFFFFFFFFFFFFFFFFFFFFFFFEFFFFFFFD
:1004100010B5054C237833B9044B13B10448AFF33E
:1004200000800123237010BD9090FF1F000000008A
:100430009CC0000008B5064B1BB106480649AFF347
:1004400000800648036813B1054B03B1984708BD07
:10045000000000009CC000009490FF1F9090FF1FC0
:100460000000000010B504460C20002103F0BEF887
:100470000A20002103F0BAF80D20002103F0B6F89D
:10048000012C02D0022C09D010BD0C20012103F058
:10049000ADF80D20012103F0A9F810BD0A200121BB
:1004A00003F0A4F80D20012103F0A0F810BD00BF57
:1004B0002DE9F843894690461F460378202B05D145
:1004C0004378202B18BF461C0DD106E01C480021A4
:1004D00001F078FF0020BDE8F883841C2646013433
:1004E00030782028FAD0304607F07CFA04460028FD
:1004F0000EDD331813F8013C202B09D135180022EA
:1005000005F8012D013C03D015F8013C202BF7D054
:10051000A74206DA0B48002101F054FF0020BDE895
:10052000F883A04506DD0848002101F04BFF0020BC
:10053000BDE8F883C9F800600120BDE8F88300BF7A
:10054000E8AA0000FCAA000014AB000038B505467C
:100550000C4600220B4603F8012B4A70013303F8C6
:10056000012B1A700A4829462246E31C01F030FE8E
:10057000034610B90122A27007E0E278032A04D1F1
:100580000448002101F01EFF0023184638BD00BFBB
:10059000C490FF1F2CAB000008B502F0E5FC05F08D
:1005A0003BFF074905F08CFF064905F089FF064926
:1005B00005F086FF054906F037F806F0D1F808BDCA
:1005C000000020419A99993F66667E4100F07F4580
:1005D00010B51720FFF7E0FF0446882803D90E2046
:1005E000002103F003F8872C03D80E20012102F02C
:1005F000FDFFA4F1820009288CBF0020012010BD5E
:100600002DE9F84301F082FF06460F4647F23054C9
:1006100000254FF0C80903F0C1FD00F0DF08B8F174
:100620004E0F08D001F072FF801B61EB07018D4275
:1006300008BF844206D20948002101F0C3FE002011
:10064000BDE8F883B8F1590F05D0FFF7C1FF484660
:1006500003F042F8DFE70120BDE8F88368AB000053
:1006600038B50B48002101F0ADFEFFF7C9FF68B1B6
:10067000002425462046294602F06EFD0134B4F5DB
:10068000006FF7D10348002101F09CFE38BD00BF88
:1006900074AB0000DCAB00002DE9F04781468846D2
:1006A0002048002101F08EFE01F030FF06460F4683
:1006B00047F23054002548464146FFF747FF82463F
:1006C00010B398F80030FBB114E01748002101F096
:1006D00079FE4FF0000A21E003F060FD1B2806D1EF
:1006E0001248002101F06EFE4FF0000A16E0FFF7FD
:1006F0006FFFE0E7D9E900230D49C1E900230D4868
:10070000002101F05FFE09E001F000FF801B61EBBA
:1007100007018D4208BF8442DED2D6E75046BDE8CD
:10072000F08700BFFCAB000054AC000068AB0000D9
:10073000B090FF1F70AC00002DE9F04FA9B0044647
:100740000023089309930A930B930C930D930E9334
:100750000F9308A807A9FFF79FFF002800F050811A
:100760000AA8172101F0EEFE0AA8214607F0DCF8DE
:1007700000231093119312931393149315931693CC
:100780001793DDE9084554EA050100F0FE802027B3
:100790009B460DF1400818AEC146CA46C8EB0B0B8C
:1007A0000BEB0A0002F0C4FC0AF8010BB245F7D1CA
:1007B000E5E09D4208BF944200F0FE8007F120036F
:1007C000B3F5026F00F0E180BB461F46E5E7CDF8C8
:1007D00010B09B4618ACCAEB0906301902F0A8FC11
:1007E00004F8010BAC42F8D1F4E0049AB2F5006FC2
:1007F00000F286800DF11F0408AE0DF13F050134B3
:10080000A01B4844217802F0A7FCAC42F7D177E066
:100810000AA81AA907F066F800285DDA00232093D9
:10082000219322932393249325932693279320ABFC
:1008300003930DF19F050DF17F04C3F5FC660136AE
:10084000301902F075FC04F8010FAC42F8D1DDE973
:10085000202352EA030140F0C480B8F13E0F00F3B8
:10086000C5804FF4FC6A4FF03F0B039AC2F1FF22A0
:1008700002F57F02E03205920BF1FF3BBAF5006F03
:100880000BD820AB28AF1C46059E5644A01902F099
:100890004FFC04F8010BBC42F8D10AF12003B3F578
:1008A000006F0BD80DF17F040399C1EB0A060134E8
:1008B000A019217802F050FCA542F8D1AAF1200A33
:1008C000C345D9D192E00134A01B4844217802F0FD
:1008D00043FCAC42F7D113E008F10108CAF80070FC
:1008E00019971A971B971C971D971E971F974FEAEA
:1008F00048190BF12003B8F1400F7FF468AF64E0B2
:100900004148002101F05EFD0AA8002101F05AFDD6
:100910000AA807F067F8C0F11905002D09DD0024C9
:100920003A4F26463846314601F04CFD0134A54287
:10093000F8D14FF0FF33009308A80721002201F0FF
:1009400079FD9DF83F3003F00303022B08D0032B01
:100950000BD0012B0ED12E48002101F033FD4FE0CA
:100960002C48002101F02EFD4AE02B48002101F027
:1009700029FD45E02948002101F024FD40E0DDE9A2
:10098000102352EA03017FF414AF01238DF83F30A6
:100990000023189319931A931B931C931D931E9372
:1009A0001F934FF0400B20220492994698460DF178
:1009B000600A20AD4F460DE71948002101F002FD05
:1009C00012A8184901F0FEFC1AE01748002101F0B6
:1009D000F9FC15E0DDE9182352EA03017FF418AFB2
:1009E00003E71148002101F0EDFC09E0049AB2F59B
:1009F000006F85D80DF11F0408AE0DF13F0562E7C9
:100A000029B0BDE8F08F00BFA0AC0000E4B9000041
:100A1000C0AC0000D0AC0000E0AC0000F4AC0000C2
:100A200010AD00001CB900003CAD000038B5041E3C
:100A30000BDDFFF7CDFD642CB4BF254664252846A9
:100A400002F04AFE641B002CF3DC38BD70B598B090
:100A5000054630B10120FFF705FD3048002101F0C7
:100A6000B1FC00222E4B1A702E4C204601F0EAF900
:100A70000DF10F030093204603A90DF10D020DF1B6
:100A80000E0301F0E5FA00283AD09DF80C209DF8FD
:100A90000D309DF80E10009104A8234906F0FCFECD
:100AA00004A8002101F08EFC9DF80F1001F0010454
:100AB00001F00206F6B201F00401C9B21B4B1C4A58
:100AC00000290CBF11461946009104A81949002CB1
:100AD00018BF1A461C46164B002E18BF234606F0B8
:100AE000DBFE04A8002101F06DFC0E4801F016FBAE
:100AF00030B10C4801F0E6FA10B10122084B1A702F
:100B00004DB14FF4FA60FFF791FF0020FFF7AAFC08
:100B10006420FFF78BFF18B070BD00BF60AD000010
:100B20002091FF1FC490FF1F88AD000058AD00004A
:100B30005CAD0000B4AD000010B50C46FFF792FCB0
:100B40002046FFF773FF0020FFF78CFC10BD00BFAD
:100B500010B582B000241F4B1C701420012102F03C
:100B600077FD1420214602F041FD1520012102F0FD
:100B70006FFD1520214602F039FD0E20012102F003
:100B800067FD0E20214602F031FD0A20012102F00E
:100B90005FFD0C20012102F05BFD0D20012102F020
:100BA00057FD02204FF47A71FFF7C6FF0C2002F0C8
:100BB000AFF9022002F080F9009402230193064865
:100BC00003210122042300F049FE2046FFF73EFFE7
:100BD00002B010BD3091FF1FC490FF1F2DE9F04FF0
:100BE000B1B00446002106910791089109910A913C
:100BF0000B910C910D91A84B1A68A848815419606B
:100C0000A74801F0DFFB9CB9A44B1B784BB1A5486A
:100C1000002101F0D7FB4FF4FA70FFF707FF00F057
:100C200022BCA148002101F0CDFB00229B4B1A7091
:100C300001F06CFC9D4A0023121843EB01039C4910
:100C4000C1E9002395489B49052206F0FBFEB8B98F
:100C5000994805A901221346FFF72AFC002800F055
:100C60000284059B19783039C9B2032904D9934805
:100C7000002101F0A7FBF6E3914800F01DFEF2E32E
:100C80008648904906F02EFE58B9FFF7DFFE8E4BDE
:100C90001B78002B00F06A838C48002101F092FB46
:100CA000E1E3894B1B78002B00F060837B48884987
:100CB00006F018FE10B9FFF7D3FCD4E37748854956
:100CC00006F010FE002863D18348002101F07AFB72
:100CD000002716971797189719971A971B971C971D
:100CE0001D973D467D4EDFF8148216AB0DF1780955
:100CF0001C46ED1A281902F01BFA04F8010B4C45AA
:100D0000F8D17CE3002F40F0AE837548002101F05C
:100D100059FBA8E318A8002101F054FB18A806F01D
:100D200061FEC0F11905002D08DD0024A146304602
:100D3000494601F047FB0134A542F8D14FF0FF339B
:100D4000009316A80721002201F074FB9DF877306C
:100D500003F00303022B08D0032B0BD0012B0ED181
:100D60006048002101F02EFB0DE04046002101F01B
:100D700029FB08E05C48002101F024FB03E05B480C
:100D8000002101F01FFB01377D01402FADD16AE347
:100D900042485749032206F055FE78B9554805A93F
:100DA00003221623FFF784FB002800F05C830598DC
:100DB000FFF7C2FC424801F0DFF954E337484E49DF
:100DC000032206F03FFE002840F0C180494805A9F3
:100DD00003221623FFF76CFB002800F044830599DB
:100DE000029100220E920F9210921192129213927F
:100DF000149215921346174693460EAD16AE2C4626
:100E00005D1B281902F094F904F8010BB442F8D1E3
:100E1000FEE2029810A906F065FD00287ED10023AD
:100E200016931793189319931A931B931C931D935E
:100E30000BF101077F010DF1580AD1466FF01F0435
:100E4000CAEB0404CDF80CB0A34607F12008B8F5AE
:100E5000006F00F2E2821EAE4C46CAEB070528196D
:100E600002F066F904F8010BB442F8D1B7F5006F4F
:100E70000BD80DF157040DF177055F440134E019EB
:100E8000217802F069F9AC42F8D1DDE9162352EA83
:100E9000030135D04746D8E7C090FF1F3091FF1FB0
:100EA0001CB90000ECAD000000AE0000C027090036
:100EB000B890FF1F30AE00003591FF1F38AE000024
:100EC000C490FF1F50AE00002091FF1F58AE0000DD
:100ED0007CAE000084AE00008CAE0000E4B90000DF
:100EE000A8AE0000C0AC0000E0AC0000F4AC000014
:100EF000B4AE00003391FF1FB8AE0000D0AC0000CC
:100F0000DDF80CB00BF1FF3B16A8AB4910AA06F0B8
:100F1000C3FC16A8002101F055FA01270BF1010BC3
:100F200000230E930F931093119312931393149322
:100F300015934FEA4B1303F12002B2F5006F7FF6D1
:100F40005CAF63E29D48002101F03CFA8BE29C48D3
:100F50009C49062206F076FD002840F092809A48CF
:100F600005A903221623FFF7A3FA002800F07B82CD
:100F7000059A0392002316931793189319931A93C3
:100F80001B931C931D934FF0200BDA469846029357
:100F9000DFF8509216AF1EAE3C46C7EB0805281985
:100FA00002F0C6F804F8010BB442F8D13DE2032385
:100FB0008DF87730BAF5006F0BD80DF1570407F1B3
:100FC0001F050134E01B4044217802F0C5F8AC4213
:100FD000F7D118A8002101F0F5F918A806F002FDD4
:100FE000C0F11905002D08DD00242646484631468B
:100FF00001F0E8F90134A542F8D14FF0FF33009336
:1010000016A80721002201F015FA9DF8773003F0A9
:101010000303022B0AD0032B0FD0012B14D16B48F2
:10102000002101F0CFF90123029313E06848002169
:1010300001F0C8F9012102910CE06648002101F09D
:10104000C1F90122029205E06348002101F0BAF9DA
:1010500001230293002316931793189319931A935D
:101060001B931C931D930BF1200ABAF5026F00F03D
:10107000D981D846D3468DE75048002101F0A2F926
:10108000F1E14F485549052206F0DCFC002840F00C
:10109000AB80534805A903221623FFF709FA00285D
:1010A00000F0E1810599039100231693179318939B
:1010B00019931A931B931C931D934FF0200BDA4640
:1010C00098460293DFF81C9116AF1EAE3C46C7EB64
:1010D0000805281902F02CF804F8010BB442F8D1E5
:1010E000AEE101238DF87730BAF5006F0BD80DF122
:1010F000570407F11F050134E01B4044217802F03A
:101100002BF8AC42F7D118A8002101F05BF918A820
:1011100006F068FCC0F11905002D08DD0024264604
:101120004846314601F04EF90134A542F8D14FF05E
:10113000FF33009316A80721002201F07BF99DF8E8
:10114000773003F00303022B0AD0032B0FD0012BBF
:1011500014D11E48002101F035F90122029213E05A
:101160001B48002101F02EF9012302930CE01948DD
:10117000002101F027F90121029105E01648002124
:1011800001F020F90122029200231693179318937D
:1011900019931A931B931C931D930BF1200ABAF514
:1011A000026F00F04A81D846D3468DE703480021FC
:1011B00001F008F957E100BFBCAE0000E0AE00004E
:1011C0003091FF1FFCAE00003691FF1FC0AC000045
:1011D000D0AC0000E0AC0000F4AC000004AF0000B4
:1011E0003591FF1FE4B90000A048A149052206F08F
:1011F00029FC002840F092809E4805A9032216236E
:10120000FFF756F9002800F02E81059B0393002379
:1012100016931793189319931A931B931C931D936A
:101220004FF0200BDA4698460293DFF8B09216AFE3
:101230001EAE3C46C7EB0805281901F079FF04F8FB
:10124000010BB442F8D106E102238DF87730BAF5EC
:10125000006F0BD80DF1570407F11F050134E01B97
:101260004044217801F078FFAC42F7D118A8002162
:1012700001F0A8F818A806F0B5FBC0F11905002D7B
:1012800008DD002426464846314601F09BF801342B
:10129000A542F8D14FF0FF33009316A80721002292
:1012A00001F0C8F89DF8773003F00303022B0AD051
:1012B000032B0FD0012B14D16F48002101F082F8CD
:1012C0000121029113E06D48002101F07BF8012219
:1012D00002920CE06A48002101F074F801230293A5
:1012E00005E06848002101F06DF80121029100231A
:1012F00016931793189319931A931B931C931D938A
:101300000BF1200ABAF5026F00F0A280D846D3464E
:101310008DE75D48002101F055F8A4E0534B1B78A0
:101320001BB15A48002101F04DF85948002101F045
:1013300049F85848002101F045F85748002101F0CC
:1013400041F85648002101F03DF85548002101F0D0
:1013500039F85448002101F035F85348002101F0D4
:1013600031F85248002101F02DF807E050480021E3
:1013700001F028F84648002101F024F84D480021EA
:1013800001F020F84C48002101F01CF84B4C20469D
:10139000002101F017F84A48002101F013F816A8BF
:1013A00048494022162306F077FA16A8002101F0DA
:1013B00009F84548002101F005F84448002101F0F2
:1013C00001F81720FFF7E8F80346414AA2FB001294
:1013D000D20802EB820516A83E49A3EB450306F0AE
:1013E0005BFA16A8002100F0EDFF3B48002100F059
:1013F000E9FF01F08BF8224601F054F833E0DDE913
:10140000162352EA03017FF485AC7BE45FBB99E5C8
:10141000029A002A7FF4FDAC80E500220023CDE98A
:10142000162323E5029BF3B926E6039818A906F0D4
:1014300059FA00287FF40EAEB9E5029999B9B5E6DC
:10144000039818A906F04EFA00287FF49DAE48E6EE
:10145000029A42B95DE7039818A906F043FA0028FA
:101460007FF445AFF0E631B0BDE8F08F3091FF1F5B
:101470000CAF00003591FF1FC0AC0000D0AC0000E5
:10148000E0AC0000F4AC0000E0AE000014AF0000DF
:101490002CAF000038AF00007CAF0000B8AF0000F8
:1014A000F8AF00003CB0000070B00000A4B0000035
:1014B000D8B0000020B100006CB100001CB90000E1
:1014C000C0B100000CB2000054B200007CB20000B9
:1014D000CDCCCCCC84B20000A4B20000E4B90000B2
:1014E000F0B583B001F012F80024214E214D224FB7
:1014F00036E002F053FEC4B20023ADF804308DF89C
:1015000004400D2C01D00A2C07D10120FFF766FB07
:101510003046002100F056FF21E0082C08D12B684E
:10152000EBB1013B2B6001A8002100F04BFF16E05E
:10153000A4F12003DBB25E2B11D801A8002100F03A
:1015400041FF2B68B3F5FA7F05D30C48002100F06A
:1015500039FF00232B602B685A1C2A60FC5401249D
:1015600002F068FE0028C4D1204603B0F0BD00BFE1
:10157000C0B20000C090FF1F3091FF1FC8B2000032
:101580002DE9F04F8FB0CDE90401039200230693BB
:101590000793089309930A930B930C930D930446B6
:1015A0000D4654EA050100F08A804FF020091F46DD
:1015B0000DF1180A0DF13808D3465E46CAEB07074D
:1015C000B81901F0B5FD06F8010B4645F8D171E0F8
:1015D0009D4208BF944200F0848009F12003B3F5D6
:1015E000026F6CD04F469946E7E74548002100F06E
:1015F000E9FE0DE04348002100F0E4FE08E0424827
:10160000002100F0DFFE03E04048002100F0DAFE98
:1016100008A8002100F0D6FE039AD378012B06D04B
:10162000032B09D13A483B4900F0CCFE08E03A4888
:10163000384900F0C7FE03E03848364900F0C2FEE2
:101640000220FEF70FFF9DF8373013F0010F0AD08C
:101650001420012101F0CAFF6420FFF7E7F91420EC
:10166000002101F0C3FF9DF8373003F00303032B83
:1016700003D14FF4FA70FFF7D9F99DF8373013F022
:10168000020F0AD01520012101F0B0FF6420FFF7FE
:10169000CDF91520002101F0A9FF4FF47A70FFF772
:1016A000C5F90020FEF7DEFEDDE904231C49C1E98F
:1016B000002321E0DDE9062352EA030188D119481D
:1016C000002100F07FFE4FF0FF33009304A80721B4
:1016D000104A00F0AFFE01204FF47A71FFF72CFAA8
:1016E0000AE09DF8373003F00303022B82D0032B6E
:1016F00085D0012B88D178E70FB0BDE8F08F00BF0F
:10170000E4B20000F8B200000CB3000024B3000003
:101710003CB300001CB9000054B300006CB30000DF
:10172000B090FF1F7CB30000F0B58DB0FFF7D8FE7E
:101730000746FEF74DFF064600F0E8FE04460D465C
:10174000304B1B787BB13FB110F57A7441F1000545
:101750002D4BC3E9004553E02B4B1B68C31AB3F56F
:101760007A7F04DA4CE00120FFF770F940E00023B3
:101770000493059306930793089309930A930B9395
:1017800004A803A9FEF7E2FE80B99DF80E301BB154
:101790000120FFF75BF904E001204FF47A71FFF7B5
:1017A000CBF91A48002100F00DFE21E09DF80C3025
:1017B00063B9002200231649C1E90023002E0CBFA3
:1017C000012002201421FFF7B7F911E0DDE904013F
:1017D0000F4BD3E90023994208BF904208D0CDE9CE
:1017E000004503AAFFF7CCFE0848002100F0EAFDFF
:1017F000084800F0C1FC00F089FE034BC3E900017A
:101800000DB0F0BD2091FF1F2891FF1FA4B3000071
:10181000B090FF1FC490FF1F10B5044C204600F08D
:1018200009F8034B236001F049FC10BDC490FF1F71
:10183000E0AA0000084A0260002280F8552080F8E3
:10184000562080F8572080F8582080F8592080F8DA
:101850005A2080F85B207047C0BA000070B504467B
:101860009DF8140084F8551084F8562084F85730F9
:101870009DF8103084F8583084F85900012584F818
:101880005A50002684F85B60294601F0E1FE94F886
:101890005800294601F0DCFE94F85500294601F075
:1018A000D7FE94F85700294601F0D2FE94F856006E
:1018B000314601F0CDFE70BD017170472DE9F04752
:1018C0000446884690F85B3063B1214B4FF00042EC
:1018D000DA6259631A46D36A002BFCDA1C4B9B6B05
:1018E000BDE8F08790F85500012101F07FFE4FF42C
:1018F000C873013B7FF4FDAF082701264FF0000AB3
:101900004FF4C875B14694F85500514601F06EFE8B
:101910002B46013B7FF4FDAF16EA080F94F8570001
:101920000CBF0021012101F061FE2B46013B7FF439
:10193000FDAF94F85500494601F058FE2B46013B97
:101940007FF4FDAF7600013FDDD1BDE8F08700BF39
:1019500000C002402DE9F047044690F85B3073B1B7
:10196000204B4FF00042DA6200225A631A46D36AD3
:10197000002BFCDA1B4B986BC0B2BDE8F08790F8E7
:101980005500012101F032FE4FF4C873013B7FF492
:10199000FDAF082501264FF00008C2464FF4C87776
:1019A000B14694F8560001F045FE08B148EA060831
:1019B00094F85500514601F019FE3B46013B7FF477
:1019C000FDAF94F85500494601F010FE3B46013B3F
:1019D0007FF4FDAF7600013DE3D15FFA88F0BDE80A
:1019E000F08700BF00C0024038B5044690F85A3076
:1019F000002B30D090F85800002101F0F7FD0220B4
:101A000001F06AFE2379022B03D92048002100F05F
:101A1000D9FC20460221FFF751FF2046FFF79AFF2D
:101A200005462379022B07D91948002100F0CAFC8A
:101A30002846184900F0EEFC94F85800012101F006
:101A4000D5FD4FF4C873013B7FF4FDAF012D14BFEA
:101A50000020012038BD104D28462421012201F02C
:101A60006FF8284600F016FEC5B22379022B07D97D
:101A70000748002100F0A6FC2846064900F0CAFCF1
:101A8000012D14BF0020012038BD00BF4CB600005E
:101A90006CB600001CB90000DC93FF1FF8B50646C9
:101AA00065240A270AE0013CA4B224B907480021B2
:101AB00000F088FC08E0384601F00EFE3046FFF7E3
:101AC00093FF05460028EED02846F8BD80B60000FA
:101AD0002DE9F047054689461646FFF7DFFF8046A9
:101AE00000285FD095F85AA0BAF1000F2FD095F8D2
:101AF0005800002101F07AFD022001F0EDFD2B7964
:101B0000022B03D92948002100F05CFC2846032160
:101B1000FFF7D4FE7EB109F1FF34771E59FA87F73B
:101B20000126304601F0D8FD2846FFF713FF04F8E0
:101B3000010FBC42F5D195F85800012101F056FD86
:101B40004FF4C873013B7FF4FDAFD0462AE002207A
:101B500001F0C2FD164C721C20462421D2B200F0C6
:101B6000EFFF204600F096FD04462B79022B07D9A3
:101B70001048002100F026FCE0B20F4900F04AFCBA
:101B800086B109F1FF34771E59FA87F70126084D0F
:101B9000304601F0A1FD284600F07CFD04F8010F5D
:101BA000BC42F5D14046BDE8F08700BF9CB60000BE
:101BB000DC93FF1FBCB600001CB9000030B587B035
:101BC0000446154B186802909B88ADF80C302046EF
:101BD00004A90622FFF77CFF0546C8B12379022B32
:101BE0000BD90E48002100F0EDFB4FF0FF330093BE
:101BF00004A806210A4A00F01DFC04A802A9062236
:101C000005F070FB20B10748002100F0DBFB002548
:101C1000284607B030BD00BFA8B30000D0B6000012
:101C20001CB90000DCB600002DE9F04F97B08146EA
:101C30000F469046531FDBB24B2B05D9504800216D
:101C400000F0C0FB002098E002A9FFF741FF002848
:101C500000F08B80B8F105024BD40DF1070300248E
:101C600013F8015F15B95978FF2903D00134944264
:101C7000F6DD45E0002C4ADB16AB234413F84ECCCE
:101C8000E24613F84D3C6344B3F5807F46D1631DB3
:101C90006344434547DC04F1040BBCF1000F47D01B
:101CA0000025214602AA2244084653191E797E5572
:101CB0000135AA45F8D15AE0A4450DDD16AB034421
:101CC000513B0DF107006044002213F8011F0A4444
:101CD000D2B28342F9D100E0002216AB9C441CF83A
:101CE000503CDB4303F0FF03264C934208BF002423
:101CF00022E04FF0000A4FF0FF35AB46224C1BE0CC
:101D00004FF0000A4FF0FF35AB461F4C14E04FF088
:101D1000000A4FF0FF35AB461B4C0DE04FF0FF358E
:101D2000AB461A4C08E04FF0FF35AB46184C03E0C9
:101D30005D46184C00E0174C99F80430012B0AD985
:101D40001548002100F03EFB009502A84146134AC9
:101D50005B4600F06FFB2CB12046002100F032FB07
:101D600000200AE05FFA8AF007E0002005E0DC448A
:101D700065463B78D52BDED19EE717B0BDE8F08FE6
:101D8000CCB70000A8B70000F8B6000018B70000F4
:101D900040B7000078B70000ECB700001CB90000A5
:101DA0002DE9F04105468846174690F85A305BB356
:101DB00090F85800002101F019FC022001F08CFC81
:101DC0002B79022B03D91D48002100F0FBFA28468D
:101DD0000121FFF773FD5FB108F1FF347E1E58FA51
:101DE00086F6284614F8011FFFF768FDB442F8D1C3
:101DF00095F85800012101F0F9FB4FF4C873013B3D
:101E00007FF4FDAFBDE8F081022001F065FC0C48D5
:101E1000242100F079FD67B108F1FF347E1E58FAE5
:101E200086F6074D284614F8011F00F007FCB4425F
:101E3000F8D1034800F08AFEBDE8F081F8B7000051
:101E4000DC93FF1F10B588B0044603791BB14148ED
:101E5000002100F0B7FA94F85900012101F0C6FB07
:101E60000A2001F039FC94F85900002101F0BEFB72
:101E70004FF4C87001F030FC94F85900012101F0D2
:101E8000B5FB0A2001F028FC94F85A30002B5BD0F7
:101E900094F85B30002B3DD000F06CFB2E4B1B7890
:101EA000002B28D072B62C4B1B7813F0010F07D0F3
:101EB0002A4B19682A4A12680A402A490A601A609D
:101EC000254B1B7813F0020F07D0274B1968244AC3
:101ED00052680A4023494A601A601F4B1B7813F06E
:101EE000040F07D0214B19681D4A92680A401D490A
:101EF0008A601A6062B61E4BDA681E4B9A4209D09D
:101F00001B4B1D4A1A601B4ADA6002F180421A61BB
:101F10001A4A1A6003A85521142205F077FA2046C0
:101F200003A91422FFF73CFF2379012B0FD9144892
:101F3000002100F047FA4FF0FF33009303A814216B
:101F4000104A00F077FA02E00F4800F02BFC08B0CE
:101F500010BD00BF1CB800004493FF1F80E100E0EB
:101F60002C93FF1F3893FF1F84E100E088E100E01D
:101F700000C002400320013901401F0000001F8003
:101F80002CB800001CB90000DC93FF1F2DE9F041C4
:101F90009AB08046174600238DF80C308DF80D302E
:101FA000FF238DF80E30531C8DF80F30D3438DF87E
:101FB0001030D4238DF8113022B9062000221346A8
:101FC00011460CE0501EC0B2461C002303AC1C445A
:101FD000CD5CA5710133B342F8D10730EEE71AACFE
:101FE000224412F85C2C1144C9B20133DBB21A4608
:101FF0008342F4DB23460344C94303F85C1C841C7E
:10200000002203F85B2C404603A9E2B2FFF7C8FEAA
:1020100098F80430012B0BD90748002100F0D2F9C1
:102020000637009703A82146044A052300F002FA68
:102030001AB0BDE8F08100BF44B800001CB9000030
:1020400010B50446FFF7A2FF2046FFF7B7FD10BD0D
:102050002DE9F8430446894690461F46007918B199
:102060001648002100F0AEF92546022005F8050FBC
:10207000204629460122FFF7E3FF0646D0B120465D
:1020800029460D22FFF7D0FD062802D1A379032BA4
:1020900005D00B48002100F095F900260AE0E3790D
:1020A00089F80030237A88F80030637A3B70A27A8E
:1020B000089B1A703046BDE8F88300BF50B8000096
:1020C00070B8000070B5044603791BB111480021B7
:1020D00000F078F9142262710123A371E271237276
:1020E000651D204629460422FFF7AAFF064670B167
:1020F000204629460922FFF797FD022802D1A3793D
:10210000152B04D00448002100F05CF9002630466D
:1021100070BD00BF8CB80000A0B8000070B50446C8
:1021200003791BB11248002100F04CF9322363718E
:102130000522A271FF23E37101232372032363723B
:10214000A51820462946FFF77BFF064670B12046BA
:1021500029460922FFF768FD022802D1A379332B13
:1021600004D00448002100F02DF90026304670BD4F
:10217000B4B80000DCB8000070B5044603791BB1A8
:102180001148002100F01EF9322363710123A3716D
:102190000023E371651D204629460322FFF750FF07
:1021A000064670B1204629460922FFF73DFD022868
:1021B00002D1A379332B04D00448002100F002F9A6
:1021C0000026304670BD00BF04B9000020B90000F1
:1021D0002DE9F04796B006460F469046994603799A
:1021E0001BB16F48002100F0EDF8002588F8005081
:1021F00089F800503C4604F8015B7D70013404F816
:10220000015B04F8015B04F8015B04F8015B04F86E
:10221000015B25704A2373710123B371F571751D3C
:10222000304629460322FFF70BFF0446002800F042
:10223000B280304629461C22FFF7F6FC022802D95C
:10224000B3794B2B05D05748002100F0BBF8002490
:10225000A1E0F57933793BB15348002100F0B2F8A1
:102260002846524900F0C6F8012D40F09480357B95
:10227000042D7BD0072D64D04D48002100F0A2F83A
:1022800028464A4900F0B6F885E0B5F5517F7FD180
:10229000B8F1200F7CD1012389F8003078E0B5F542
:1022A000417F08D1B8F1200F08D1032389F800300D
:1022B0004FF0040A04E04FF0040A01E04FF0040A72
:1022C0003079002867D03B48002100F07BF84FF0C0
:1022D000FF33009338465146344A00F0ABF802A869
:1022E00035492A46434605F0D7FA99F80030012BC4
:1022F00011D102AF384605F075FB86463E182F4DCA
:102300000FCD47F80E007160B260F3602A88AB7899
:102310003282B37410E0032B0ED102AF384605F0C1
:1023200061FB86463E18264D0FCD47F80E007160C2
:10233000B260F3602868306102A81C4900F042F8DE
:1023400029E0334653F80D2F3A609A889B79BA807A
:10235000BB71072388F80030757AB37A43EA052504
:1023600096F80B803A78802A8FD111E0D6F80D309C
:102370003B60042388F80030757AB37A43EA052578
:1023800096F80B803B78802B89D04FF0040A97E7B2
:102390004FF0070A94E7204616B0BDE8F08700BF6B
:1023A00064B9000084B90000A4B900001CB90000A1
:1023B000B4B90000D8B90000E8B9000010BA0000B4
:1023C00024BA000070B505460C4605F00BFB02462A
:1023D000074801684E682946B04744B1204605F0D9
:1023E00001FB0246024801684D682146A84770BDBE
:1023F0007895FF1F10B586B002460C4601A8044927
:1024000005F04AFA01A82146FFF7DCFF06B010BD2F
:10241000C8BA000010B586B002460C4601A80449AF
:1024200005F03AFA01A82146FFF7CCFF06B010BD2F
:10243000CCBA00002DE9F84F054692461F46DDF85C
:1024400028800E46F1B10024DFF85090DFF850B03C
:10245000BC4204D110480021FFF7B4FF0BE0444513
:1024600004D158460021FFF7ADFF04E01CB14846F7
:102470000021FFF7A7FF285D0021FFF7CBFF013404
:10248000B442E5D1BAF1000F03D050460021FFF766
:1024900099FFBDE8F88F00BFE4BA0000E4B900007E
:1024A000A4B300002DE9F0478AB092464EF66022B0
:1024B000002304F075F904460D463C22002304F085
:1024C0006FF906460F461822002304F069F980468A
:1024D000304639461822002304F062F91646204699
:1024E00029463C22002304F05BF9009202A8064929
:1024F0004246334605F0D0F902A85146FFF762FF85
:102500000AB0BDE8F08700BFE8BA000030B40A4B5B
:1025100018680A4B1B68834203D9094B1A680132B9
:102520001A60064B186006490B68002242EA000454
:102530002046194630BC70478094FF1F2893FF1F28
:102540002493FF1F10B4094B1B6800290ADD0246C3
:102550000844074C44F2A71102F8013B04FB0313A3
:102560008242F9D15DF8044B704700BF8094FF1F91
:102570001DF30100184B1A6842F480521A60174B81
:10258000174A1A60174ADA6002F180421A61164A45
:102590001A60164B1B7813F0010F07BF4FF410722F
:1025A000134B4FF40072134B1A60104B1B7813F04F
:1025B000020F4FF400720CBF0F4B104B1A600B4B05
:1025C0001B7813F0040F07BF4FF410720C4B4FF43D
:1025D00000720C4B1A6070473C80044000C00240FF
:1025E00001401F000110003800001F807595FF1F7B
:1025F00018B0044008C004401CB004400CC00440A3
:1026000014B0044004C00440044BD878C0B2044B5A
:102610001B6898421CBF024B186070470060064060
:102620006087FF1F08B5FFF7EFFF10F0020FFAD029
:102630000222014BDA7008BD006006400B4B1B788C
:1026400013B90B4B1B7873B10A4B1B78402B03D982
:102650000123037100207047581C064A1070064A77
:10266000D154012070470020704700BFEE93FF1F38
:102670009093FF1FEF93FF1F4C93FF1F704700BF06
:10268000024B1878024B1B78C01A7047ED93FF1F5E
:10269000EC93FF1F074B1B78074A12789A4205D923
:1026A000591C044A1170054AD05C70474FF0FF3046
:1026B000704700BFEC93FF1FED93FF1F9493FF1F24
:1026C000054B1B78054A12789A4286BF044AD05CB3
:1026D0004FF0FF30704700BFEC93FF1FED93FF1FDB
:1026E0009493FF1F08B5104BDB7813F0200F0CD12B
:1026F000122000F053FF0D4B1B689BB100210C4AC8
:1027000011700C4A1078984708BD0B4A13780133B2
:10271000DBB21370012B02D8084B1B7813B91220BF
:1027200000F03CFF08BD00BF006006404893FF1F5B
:10273000EC93FF1FED93FF1FD893FF1F9093FF1F94
:1027400038B514460D4B1B7813B90D4B1B7893B15C
:102750000C4B1D78C5F14103A34202D20122027144
:102760001C4609482844224600F0FEF92544054B42
:102770001D70204638BD002038BD00BFEE93FF1FFE
:102780009093FF1FEF93FF1F4C93FF1F00220271D6
:102790004FF47A7181600273014A0260704700BF92
:1027A00010BB000000220C4B1A700C4B196841F052
:1027B000400119600A4B9A704FF4197209490A6076
:1027C00004390A601F225A7002229A7120225A711B
:1027D00080229A70704700BF9093FF1F348004409E
:1027E000006006400CA0044008B53D4BDB78DBB22E
:1027F00013F0100F06D01021394AD17013F0400F9A
:1028000003D108BD13F0400F2CD013F0040F1BD0E0
:102810000023344A1370344A1370344B1B681BB1C5
:102820009847314B1B782BB901222F4B1A7000228D
:102830002F4B1A702A4BD0229A702D4A12781A7197
:1028400001222C4B1A7009E00122264B1A7000223B
:10285000294B1A70224BC0229A701B790222204BFE
:10286000DA7008BD1E4A927812F0100F1CD013F0D7
:10287000010F14D11F4B1B781B4A12789A4207D9BB
:10288000591C1C4A11701A4AD25C154B1A7102E08D
:102890000022134B1A71D022114B9A701BE0104B7F
:1028A000C0229A701B7916E00022144B1A70122075
:1028B0001349032200F02AFE094B1B79DAB20E4BB2
:1028C0001B783F2B07D80749097821B1581C0A49C2
:1028D00008700C49CA540222014BDA7008BD00BFCF
:1028E000006006404593FF1FEF93FF1FD493FF1F27
:1028F0004C93FF1FF093FF1FED93FF1FD893FF1F13
:10290000E52600009493FF1F4900044B1970012332
:10291000034A1370034A1370704700BF4C93FF1FA4
:10292000EE93FF1FEF93FF1F2DE9F0418846364BD2
:102930001222DA709B7813F0200F03D0B422324BAE
:102940009A701AE0314B1D681C460BE023685B1B34
:102950000F2B07D92C4B00229A7080229A700420EA
:10296000BDE8F081FFF750FE10F0200FEED10022FD
:10297000274B1A70B022244B9A70FFF745FE10F0D7
:10298000200FFAD0234B1B787BB30024224E1E4D20
:10299000204F335D2B71FFF737FE10F0020F02D18D
:1029A00010F0200FF7D10223EB70FFF72DFE10F08F
:1029B000100F04D08022144B9A70042018E010F0FD
:1029C000200F04D18022104B9A70042010E010F0E8
:1029D000010F04D0002C0CBF022003200BE00134B7
:1029E000E4B23B78A342D4D801E0002000E000200C
:1029F000B8F1000F02D08022034B9A700022074BDF
:102A00001A70BDE8F08100BF006006408094FF1F8F
:102A10009093FF1FEF93FF1F4C93FF1FEE93FF1F39
:102A20002DE9F8430C461546984600233E4A13709C
:102A30003E4A13703E4B1222DA709B7813F0200F3F
:102A400003D0B4223A4B9A700AE0FFF7DDFD10F094
:102A5000200FFAD10022374B1A70B022344B9A70F3
:102A6000610041F00101C9B2314B1971FFF7DAFD84
:102A7000FFF7CAFD10F0110005D080222C4B9A7090
:102A80000020BDE8F883402DB4BF2A46402242B959
:102A9000B8F1000F0CBFA0228022254B9A70BDE830
:102AA000F883012A05D1224BA8229A701B790025B0
:102AB00025E01F4BA02199701B79012A1CD91E4DBE
:102AC000961EF6B2013A5FFA82F90024184FFFF71A
:102AD000A9FDB44208D1164AA8239370631CDDB245
:102AE0001279164B1A550AE00134E4B23A7905F826
:102AF000012F4C45EBD101E0002500E02546FFF712
:102B000091FD0B4BB0229A70681CC0B21A790B4B26
:102B10005A55B8F1000F02D08022054B9A70034B32
:102B20001870BDE8F88300BFEC93FF1FED93FF1F03
:102B3000006006409093FF1F9393FF1F9493FF1F25
:102B400008B50123FFF76CFF08BD00BF08B50121E0
:102B5000FFF7EAFE08BD00BF08B50248FFF716FE02
:102B600008BD00BFDC93FF1F844641EA000313F059
:102B700003036DD1403A41D351F8043B40F8043B84
:102B800051F8043B40F8043B51F8043B40F8043B47
:102B900051F8043B40F8043B51F8043B40F8043B37
:102BA00051F8043B40F8043B51F8043B40F8043B27
:102BB00051F8043B40F8043B51F8043B40F8043B17
:102BC00051F8043B40F8043B51F8043B40F8043B07
:102BD00051F8043B40F8043B51F8043B40F8043BF7
:102BE00051F8043B40F8043B51F8043B40F8043BE7
:102BF00051F8043B40F8043B403ABDD2303211D387
:102C000051F8043B40F8043B51F8043B40F8043BC6
:102C100051F8043B40F8043B51F8043B40F8043BB6
:102C2000103AEDD20C3205D351F8043B40F8043B86
:102C3000043AF9D2043208D0D2071CBF11F8013B84
:102C400000F8013B01D30B8803806046704700BF4A
:102C5000082A13D38B078DD010F003038AD0C3F159
:102C60000403D21ADB071CBF11F8013B00F8013B3B
:102C700080D331F8023B20F8023B7BE7043AD9D3FA
:102C8000013A11F8013B00F8013BF9D20B780370CF
:102C90004B7843708B7883706046704730B4394A04
:102CA0003949136813F0800FFBD10B6813F0800FC4
:102CB000F7D172B6354B1B78002B5FD0344B1C68B4
:102CC00004331D68043318680433196804331A6820
:102CD00004331B682C44204401440A441A44C2F3C0
:102CE0004E0242F400422B4B1A602C331C68043312
:102CF0001D68043318680433196804331A680433F0
:102D00001B682C44204401440A441A44C2F34E0276
:102D100042F40042204B1A6003F108131C6804338C
:102D20001D68043318680433196804331A680433BF
:102D30001B682C44204401440A441A44C2F34E0246
:102D400042F40042154B1A602C331C6804331D6892
:102D5000043318680433196804331A6804331B6891
:102D60002C44204401440A441A44C2F34E0242F463
:102D700000420B4B1A600022044B1A7062B630BC42
:102D8000704700BF24B0034024B00B40F293FF1FF4
:102D900038B003402CB0034030B003402CB00B409F
:102DA00030B00B4060223A4B1A70E12201331A70A6
:102DB000384B1B78082B10D1002203F1804303F518
:102DC0006C331A60132334490B6001F5FF2101F2C3
:102DD000FC710A60314A13601FE00A2B0DD13822C2
:102DE0002F4B1A6013232C490B6001F5FF2101F2D0
:102DF000FC710A60294A13600FE00C2B0CBF3422CF
:102E00003C22274B1A60122323490B6001F5FF2156
:102E100001F2FC710A60214A1360224B1B7833B126
:102E20000123214A136002F50022136005E000230C
:102E30001D4A136002F5002213601C4B1B78012B06
:102E400006D880231A4A136002F5002213601AE0A4
:102E5000042B06D88423164A136002F5002213605F
:102E600011E0082B06D88523114A136002F50022D1
:102E7000136008E0102B94BF862387230C4A13604D
:102E800002F50022136001220A4B1A70704700BF3E
:102E9000004007406487FF1F0CB003400CB00B409C
:102EA00008B00340F593FF1F20B003406587FF1F64
:102EB00024B00340F293FF1F08B588B1114B1B7873
:102EC000FBB901220F4B1A700F4B1B782BB100235B
:102ED0000E4A136002F500221360FFF763FF08BD7E
:102EE000084B1B786BB10022064B1A70064B1B78FF
:102EF0002BB11346054A136002F500221360FFF759
:102F000051FF08BDF593FF1FF293FF1F24B003404C
:102F100008B50C2804D9102828BF1020102307E07A
:102F20000A2804D8092834BF08230A2300E00C2308
:102F3000DAB2101A0849087008490978994209D08C
:102F4000064B1A70064B1B7813B10022054B1A6012
:102F5000FFF728FF08BD00BFF193FF1F6487FF1F25
:102F6000F293FF1F24B003402DE9F8430D2813D935
:102F7000172802D80E38C0B20EE0A0F11A03DBB257
:102F8000052B02D80938C0B206E0A0F12203DBB25B
:102F9000062B73D81838C0B23A4B1E5C3A4B1B78DC
:102FA0000BB1FFF77BFE16F0800F29D172B6374CBC
:102FB000374D4FF0010726602F7062B672B6236856
:102FC00013F0800F04D12B7813F0FF0F0FD1F2E72D
:102FD000304B186800222E4B1A7062B62E4B1B78AD
:102FE0001841BDE8F8832B7813F0FF0FE3D062B6E9
:102FF00001F042FA72B6236813F0800FF3D0E7E7CE
:1030000072B606F040095FFA89F9244F244C06F0A5
:103010003F06244D4FF00108B9F1000F04D03B6882
:1030200023F010033B6003E03B6843F010033B6078
:10303000266085F8008062B672B6236813F0800FB0
:1030400004D12B7813F0FF0F0FD1E5E7164B18686A
:103050000022144B1A7062B60F4B1B781841BDE862
:10306000F8832B7813F0FF0FD6D062B601F004FA84
:1030700072B6236813F0800FF3D0E7E70020BDE8B5
:10308000F88300BF28BB0000F293FF1F00B003408D
:10309000F493FF1F10B00340F193FF1F0CB00B40DF
:1030A00000B00B40F393FF1F10B00B40024A13789F
:1030B00013F0010FFBD070470100024010B584B03F
:1030C000174B6C46186859689A68DB680FC4154B33
:1030D0001B7813F0020F19D08022134B1A70332281
:1030E00004331A700322013B1A7072B66B4643F028
:1030F00001030E4C2046984762B6237813F0700304
:1031000004D0237009E0013B03D106E044F62163BB
:1031100004490A7812F0010FF5D004B010BD00BFC9
:1031200040BB0000010002400700024000000240D6
:1031300010B50446B0F5006F0AD2064B1B7813F0A9
:10314000010F01D1FFF7BAFF04F1A054207810BDA0
:10315000002010BD0100024038B504460D46B0F510
:10316000006F0ED2074B1B7813F0010F01D1FFF750
:10317000A5FF04F1A0542378AB4202D02570FFF7DD
:1031800095FF38BD01000240024B1A6801321A60F7
:10319000704700BF8094FF1F08B50D4C236813F4DF
:1031A000802F01D000F0ECFB236813F4806F01D076
:1031B00001F01EFC236813F4006F01D001F016FF2C
:1031C000236813F4805FE9D002F0A0F9E6E700BFBE
:1031D0003480044008B5FFF7DFFF00BF1022014B29
:1031E0001A80704700200540704700BF024A1368EC
:1031F00018441060184670476887FF1FEFF3138369
:10320000ABB9EFF31083ABB9EFF3058323B10F2B09
:1032100005D9094A985C03E04FF4807000E0002073
:10322000EFF311833BB1834238BF184670474FF02C
:10323000FF30704700207047F0E300E010B5154BF9
:103240001C681C6014F4805F05D0134BDB6813B15D
:10325000114BDB68984714F4005F05D00E4B1B69D7
:1032600013B10D4B1B69984714F0200F05D00A4B82
:103270001B6E13B1084B1B6E984714F0100F07D04C
:10328000054BD3F884301BB1034BD3F884309847F7
:1032900010BD00BFA0900440F893FF1F10B5274B4E
:1032A0001C681C6014F4803F05D0254B1B6813B1CB
:1032B000234B1B68984714F4003F05D0204B5B68F4
:1032C00013B11F4B5B68984714F0010F05D01C4BDE
:1032D0001B6C13B11A4B1B6C984714F0020F05D0EE
:1032E000174B5B6C13B1164B5B6C984714F0080FCF
:1032F00005D0134B9B6C13B1114B9B6C984714F08A
:10330000040F05D00E4BDB6C13B10D4BDB6C9847F3
:1033100014F4002F05D00A4B5B6E13B1084B5B6EA3
:10332000984714F4802F07D0054BD3F880301BB199
:10333000034BD3F88030984710BD00BFA0A00440D5
:10334000F893FF1F10B5384B1C681C6014F0080F71
:1033500005D0364B5B6A13B1344B5B6A984714F067
:10336000100F05D0314B9B6A13B1304B9B6A9847C5
:1033700014F0400F05D02D4BDB6A13B12B4BDB6AE9
:10338000984714F0800F05D0284B1B6B13B1274BC7
:103390001B6B984714F0200F05D0244B5B6B13B1C7
:1033A000224B5B6B984714F0010F05D01F4BDB6B72
:1033B00013B11E4BDB6B984714F0020F05D01B4B6B
:1033C0009B6D13B1194B9B6D984714F0040F05D0FA
:1033D000164BDB6D13B1154BDB6D984714F4007F72
:1033E00005D0124BDB6E13B1104BDB6E984714F413
:1033F000807F05D00D4B1B6F13B10C4B1B6F984793
:1034000014F4806F05D0094B5B6F13B1074B5B6FF2
:10341000984714F4006F05D0044B9B6F13B1034B16
:103420009B6F984710BD00BFA0B00440F893FF1FEA
:1034300010B5264B1C681C6014F0010F05D0244BFE
:103440009B6813B1224B9B68984714F0800F05D0FE
:103450001F4B5B6913B11E4B5B69984714F0100F4B
:1034600005D01B4B9B6913B1194B9B69984714F00E
:10347000040F05D0164BDB6913B1154BDB69984778
:1034800014F0080F05D0124B1B6A13B1104B1B6AC6
:10349000984714F0020F05D00D4B9B6B13B10C4BEA
:1034A0009B6B984714F0200F05D0094B1B6D13B18F
:1034B000074B1B6D984714F0400F05D0044B5B6D14
:1034C00013B1034B5B6D984710BD00BFA0C0044013
:1034D000F893FF1F10B50B4B1C681C6014F0020F13
:1034E00005D0094B9B6E13B1074B9B6E984714F0A8
:1034F000010F05D0044BDB6F13B1034BDB6F984713
:1035000010BD00BFA0D00440F893FF1F30B42128A5
:1035100031D8042A2FD8DFE802F00709050B030091
:103520000B2406E00A2404E0082402E00C2400E056
:103530000924124B03EBC0035A68114B114DC3F819
:103540009C51114DC3F8A051104DC3F8A451104D1A
:10355000C3F8A8510F4DC3F8AC5172B6136823F4E9
:10356000702313600C4D45F8201043F0807343EA3C
:103570000444146062B630BC704700BF50BB00000A
:103580000082FF1F3D3200009D32000045330000E5
:1035900031340000D5340000F893FF1F094B03EBD2
:1035A000C0035A6872B6136823F0877323F480331C
:1035B00043F0807313600022034B43F8202062B66F
:1035C000704700BF50BB0000F893FF1F044B002260
:1035D0001A6004490A60044A106010221A60704799
:1035E00014D0034004D0034000D0034021281ED84B
:1035F0000F4B53F8303093F8802212F0FF0F08D0B1
:1036000019B1012283F880207047012283F800213C
:103610007047074B03EBC000436821B11A6842F0C2
:1036200003021A6070471A6822F002021A6070479B
:1036300050BB0000212806D8044B53F8303093F8D3
:103640000002C0B270470020704700BF50BB0000AE
:1036500021281CD80E4B03EBC0035B68012908D15D
:103660000B4A52F8302082F880124FF4A2721A608E
:103670007047074A52F83020002082F8800219B9BA
:103680004FF480721A60704740F203121A6070475C
:1036900050BB000072B60C4B1B680C4A12680C49F8
:1036A000096862B611F0806F02D0322B88BF0132F8
:1036B000C3F5BB433F330749A1FB03031B094FF489
:1036C0007A7000FB0230704718E000E08094FF1F22
:1036D00004ED00E0ABAAAAAA38B50546FFF7DAFF69
:1036E000044625B938BD013D0AD004F57A74FFF7C8
:1036F000D1FF001BB0F57A7FF5D200F0BDFEF6E7F2
:1037000038BD00BF10B5254B4FF400021A604FF0D2
:1037100080721A604FF000721A604FF080621A6077
:103720004FF000621A6000201D4B18604BF6FF71CD
:103730000433196028231B4A1360083213600832CF
:1037400013600832136008321360083213600832C5
:103750001360083213600822134C226004F5805471
:10376000043420600434216004342360083423606E
:10377000143C226004F5FE24043420600B480160F0
:103780000B490B6008310B600A4B1A60FFF70AFB0C
:10379000FA20FFF7A1FF00F073FC10BD08E100E084
:1037A000048003400C8003400080034008800B40ED
:1037B0000C800B4000800B4030B40E4B1B7843F064
:1037C00002020D4C04EBC20460600C480078002833
:1037D0000CBF8824C82444EA0141074D45F8321043
:1037E00080F00100054A107083F00103014A137054
:1037F00030BC7047EC94FF1F0080FF1F6595FF1FD2
:1038000010B4431E032B11D872B60A4A52F8230093
:1038100050B14268074941F82320074A32F8134063
:103820000188611A22F8131062B600E000205DF8EA
:10383000044B7047DC94FF1F7C97FF1F013803285F
:103840000DD872B6074B53F820302BB10020013051
:103850005B68002BFBD100E0002062B670470020BF
:10386000704700BF3095FF1F38B572B601231B4962
:103870001B4C5A1812F8012C12F0080F24D09A0091
:1038800054F832506DB9164B03EBC2010830486052
:10389000144943F83210144B1A78013A1A7062B680
:1038A00038BD42F0010254F832506DB90C4B03EBB5
:1038B000C201083048600D4943F832100A4B1A78AB
:1038C000013A1A7062B638BD0133052BD1D162B608
:1038D0000022054B1A7000F037FC38BD80BC000098
:1038E0000080FF1F880040005A95FF1FC80040005D
:1038F00010B4431E032B37D8400140F010001C4A7F
:10390000104472B61B4AD25C032A09D8DFE802F0E1
:1039100019021B050830022216E00830042213E0C9
:10392000154A52F823201AB9134A42F8231003E02B
:10393000124A52F823205160104A42F8231062B60E
:1039400012E0032200E005220A4CE25401F10803D0
:10395000436000F00803002B0CBF8823C8230A88AB
:1039600043EA0243036062B65DF8044B704700BF50
:103970000080FF1F9894FF1F3095FF1F4095FF1F89
:103980002DE9F84FA34CDFF8E092DFF8E0A2DFF872
:10399000E0B22578EDB215F0040F1DD09E4B1B78D8
:1039A00013F0FF0F16D09D4B1B7803F0FF022BB1D5
:1039B000531EDBB2994A137003B900BE984B1B78B3
:1039C00003F0FF0233B1531EDBB2954A13700BB9FB
:1039D00000F0FAFC0423237015F0080F00F0E482D5
:1039E00099F80030DBB21D0940F021828D4D9E0810
:1039F00005EBC6035A6855F83630C3F38303013B21
:103A00000C2B00F21082DFE813F0CB01CB010E0289
:103A10000E020E020E020E020E02E8010E020E024D
:103A20000E020D00804913680B6052684A607F4A9D
:103A300045F8362000227E490A607A490A618A6187
:103A400001217C4A11709BB240F28162934218D8E6
:103A5000B3F5D06F2ED2B3F5817F00F01E8106D86A
:103A6000802B00F0C980822B00F0CC8066E140F210
:103A70000232934200F02681B3F5A06F00F062811C
:103A80005CE142F22102934200F0868107D8B3F54F
:103A9000086F00F0AB80B3F5106F11D04EE142F229
:103AA0002122934200F0418142F22132934200F000
:103AB000498143E1604B5D68002D40F0188130E1A1
:103AC000594B9A78544B1A70564D05F180062B6A63
:103AD00013F0800F03D0686A083800F035FB083512
:103AE000B542F4D1DFF88C8100263746534AB058EE
:103AF00028B1456800F028FB0DB12846F9E70023FE
:103B00004E4973504E4AB3504E4BF05828B1456859
:103B100000F01AFB0DB12846F9E70023494973501C
:103B2000494AB35028F8023F484BFB5C023B032B49
:103B30000AD8DFE803F0020602060022434BDA55FA
:103B400002E00122414BDA5501370436102ECDD167
:103B500000223F4B1A7001253E4EDFF81C81314F89
:103B600005EB080313F8013C06F8043B13F0080FBB
:103B70002DD000F0C9FA48B1A90007EB451200F1B9
:103B800008035360344A47F8312007E0AB000022B5
:103B900047F833202E4B1A7801321A7000F0B4FA2D
:103BA00058B1AB0043F0010307EBC30100F1080279
:103BB0004A601E4A47F8332009E0AB0043F0010396
:103BC000002247F83320224B1A7801321A70AA00DB
:103BD00042F00201002347F8313042F0030247F877
:103BE000323001351D4B9E42BAD11EE20A4B1B7882
:103BF0001B4D2B700127AAE0194D00232B706B7011
:103C00000227A4E0084B9B88042B37D90F22154BC1
:103C10001A70C1E0802007406495FF1FED94FF1FDC
:103C20006695FF1F0080FF1F5095FF1FC8004000D2
:103C30008494FF1F6595FF1F84BC0000DC94FF1F68
:103C40008894FF1F3095FF1F4095FF1F9894FF1F1A
:103C50005A95FF1FC420074088004000D420074029
:103C60005C95FF1FC020074090200740942007402C
:103C7000982007407A97FF1F80BC0000A04A0021CF
:103C8000117051709F4A12F8233013F0020F5CD06C
:103C90009B4D01232B70022759E09B4B9B8803F01F
:103CA0007F03042B02DC984A52881AB10F22954BED
:103CB0001A7071E0934A12F8231021F0020102F801
:103CC0002310B2E1904B9B8803F07F03042B02DCAE
:103CD0008D4A52881AB10F228A4B1A705CE0894AC9
:103CE00012F8231041F0020102F823109DE1864BE7
:103CF0005E889F88854BA3F10C02114633F80C0CAB
:103D0000B04209D133F80A0CB84205D1360A032E65
:103D10000CBF2F7817891AE00D690C330C32002D77
:103D2000EBD10F22774B1A7036E0794B1A68794B3A
:103D30001A60754B9A78784B1A7076E10F22714BA6
:103D40001A7029E000273D4601E002276C4D6E4BBA
:103D5000DB889F4228BF1F46402F34BF3E46402687
:103D600028463146FFF728FD3544BF1B03D13F2EBF
:103D700000F2608110E0402F34BF3E4640262846C6
:103D80003146FFF719FD3544BF1B01D13F2E03D942
:103D9000624B1D60624B1F8001238AF8003042E0B5
:103DA000594B198842F22103994212D15D4BD81D1B
:103DB00012F8011B03F8011F8342F9D15A4B1B680B
:103DC000862B02D10F22594B1A7000200146FFF7B3
:103DD000F3FC574B45F8363025E0504B1E68BEB11A
:103DE0004F4FB7F80080B8F1400F34BF454640252B
:103DF00030462946FFF7E0FCC5EB08039BB23B8049
:103E00000BB9402D01D1354400E00025434B1D6026
:103E10003D4B1B88B3F5A06F05D13B4B00225A7078
:103E20009B788BF8003001238AF80030B9E0414ECE
:103E30009F0806EBC708D8F80420A2F10800013D4E
:103E4000EDB213F0080F47D000F07EF93A4B53F86B
:103E500025304BB35A68384941F8252003F1080250
:103E6000C8F80420354A525D032A12D8DFE802F070
:103E700002060A0E0321314A51550AE002212F4A57
:103E8000515506E005212D4A515502E004212B4AE7
:103E9000515518F0080F0CBF8822C8221B8842EA2F
:103EA000034346F837307CE0244B5B5D032B0BD893
:103EB000DFE803F0777702060022204B5A5570E0C6
:103EC00001221E4B5A556CE018F0080F0CBF02225D
:103ED00003221A4B5A5564E056F837301B0C22F86F
:103EE000083C002B55D0002322F8063C42F8043C45
:103EF000134B53F825302BBB114B43F8250025E01D
:103F00005C95FF1FC02007405095FF1F90BC00002C
:103F10008094FF1F8C97FF1F7495FF1F8494FF1FD1
:103F20005895FF1F8397FF1F8497FF1FED94FF1F76
:103F3000C80040000080FF1F3095FF1F9894FF1FAE
:103F4000DC94FF1F3F4B53F8253058603D4B43F83E
:103F500025003D4B33F8151032F8082C0A4423F89D
:103F6000152000F0D1F860B100F10803C8F8043062
:103F700018F0080F354B364A08BF134646F837305D
:103F80000FE0002346F83730324B1A7801321A70AE
:103F900007E018F0080F2D4B2D4A08BF134646F8CE
:103FA000373008232370F4E415F0010F22D02A499A
:103FB00002230B700022294B1A70294B24481860E9
:103FC000284C5C6098602848D8601A619A610D207E
:103FD000264B1870FF2326480370083803701830EA
:103FE0000270244A13709F22234B1A7001230B7016
:103FF000BDE8F88F15F0800F05D00D221B4B1A700D
:104000008022403B1A7015F0020F06D0184B1A7828
:10401000D2B21A700222083B1A7015F0100F0ED09F
:104020001022164B1A70BDE8F88F00200146FFF7EA
:10403000C3FBB1E628460021FFF7BEFBACE6BDE8B6
:10404000F88F00BF8894FF1F7C97FF1FC8004000B7
:10405000880040005A95FF1F94200740EC94FF1FF2
:104060000080FF1F9C94FF1FF094FF1FC02007409B
:10407000882007408C20074084200740802007408C
:1040800008B501F0B7FA00231B491A465A50C81860
:1040900042600833882BF9D1184B1A6842F4802209
:1040A0001A60154BC3F30721154A1170C3F307417A
:1040B000143211701B0E04321370FF23343A137044
:1040C00008321370783A1370012384321370002180
:1040D0006C3211707C3A137070220A4B1A704FF4D4
:1040E0000072A3F241331A60102203F1C04303F5BA
:1040F000C8231A7008BD00BF0080FF1F3480044031
:104100009C20074049E400E072B60D4B1A68B2FAF1
:1041100082F30B2B02D962B6002070474FF00041AA
:10412000D94022EA010206490A6062B6054903EB5A
:10413000C303DB00C8180022CA504260704700BFAA
:104140006C87FF1F0084FF1F08B50F4BC31A0F4A6F
:10415000A2FB03131B090B2B14D80D4A12783AB19A
:104160000C4A127812F0FF0F02D0FFF77DFB08BD5A
:1041700072B6094A4FF0004121FA03F3116819435E
:10418000116062B608BD00BF0084FF1F398EE3389E
:104190005A95FF1F6495FF1F6C87FF1F10B5134BC7
:1041A0001B6853B9124B1B7813F0FF0F18D0032074
:1041B000FFF726FB0D4B1860A8B10C4B186843881D
:1041C0005A1C03441C7A03889A4206D3FFF7BCFFAB
:1041D0000022064B1A60204610BD4280204610BDCA
:1041E0004FF0FF3010BD4FF0FF3010BD7095FF1F36
:1041F0006495FF1F08B50D4B1B6883B90C4B1B78EA
:1042000013F0FF0F08D00320FFF7FAFA074B1860EE
:1042100028B94FF0FF3008BD4FF0FF3008BD034B09
:104220001B685A881344187A08BD00BF7095FF1F99
:104230006495FF1F044B9888044B1B681BB11A88B8
:104240005B88D31A184470477C97FF1F7095FF1F37
:104250002DE9F04704460122374B1A700E4600291B
:1042600064D0DFF8E080DFF8E0909A46334FD8F86A
:10427000003083BB99F8003013F0FF0F06D1002205
:104280002D4B1A704FF0FF30BDE8F08744F2A57552
:104290000420FFF7D3FA07280AD801238AF8003050
:1042A000FFF732FFC8F80000A8B900238AF80030F1
:1042B000013D01D03B7833B10122204B1A704FF001
:1042C000FF30BDE8F08700F0D7F899F8003013F020
:1042D000FF0FDDD1D3E700233B70D8F800104A88E8
:1042E000C2F14005AE4238BF354602F108030B4427
:1042F0002A444A80761B3DB1254414F8012B03F86B
:10430000012BAC42F9D100E025464B883F2B07D961
:1043100040230B800420FFF7EBFA0023C8F800309D
:104320000522074B1A700EB12C46A0E70020024B65
:104330001870BDE8F08700BF6795FF1F6C95FF1FE1
:104340006695FF1F6895FF1F6495FF1F00B583B03A
:1043500002AB03F8010D18460121FFF779FF03B006
:104360005DF804FB10B5144B1B7813F0FF0F21D040
:104370000122124B1A70124B196851B10024114BD3
:104380001C704B880B800420FFF7B2FA0C4B1C60AA
:104390000DE0FFF7B9FE014630B10022094B1A705B
:1043A0000420FFF7A5FA02E00122064B1A70002252
:1043B000024B1A7010BD00BF6495FF1F6795FF1F69
:1043C0006895FF1F6695FF1F08B50E4B1B7813F00D
:1043D000FF0F16D10C4B196841B14B880B8004209C
:1043E000FFF786FA0022084B1A6008BDFFF78CFE23
:1043F000014618B10420FFF77BFA08BD0122034BE8
:104400001A7008BD6795FF1F6895FF1F6695FF1F0F
:1044100008B5FCF79DFBFDF787F900F02DF8FAE7EA
:1044200008B5FFF707FF08BD08B5FFF7B7FE08BDE1
:1044300008B5FFF7DFFE08BD08B5FFF793FF08BD1D
:1044400008B50846FFF782FF08BD00BF08B508465B
:104450001146FFF7FDFE08BD704700BF044B002268
:104460001A714FF47A7199601A73024A1A60704790
:104470007895FF1F68BC000008B50F4B1B78CBB9BF
:1044800001220D4B1A70FFF7D5FE08B1FFF7E4FFCC
:1044900000F024FA08B101F077F900F01DFD08B131
:1044A00001F008FA00F0BCFF08B101F099FA00220F
:1044B000014B1A7008BD00BF8895FF1F30B4002360
:1044C000B0FBF2F402FB14041D46092C94BF3034F7
:1044D0003734E4B2CC54B0FBF2F008B10133EFE76B
:1044E0000D4400226A70934207DD885CCC5C8C54DA
:1044F000C8540132013B9A42F7DB084630BC704792
:10450000194B1A6842F480621A600023174A13702C
:10451000174A1370174A1370174A1370174A13700B
:1045200040F21332164B1A604FF4517204331A6082
:10453000C0F34432134B1A70C0F347125A7000F0A4
:104540001F00987204229A700221D9745A75882229
:104550001A743C22DA7040220B4B1A704FF400524E
:10456000A3F229331A607047348004401496FF1F69
:104570009195FF1F1C96FF1F1596FF1F9095FF1F1B
:1045800040A0044000A006402DE400E0164B9B78BC
:1045900003F0EC0300F00302134310F0040F18BF04
:1045A00043F01003104A937000F00F03042B04D162
:1045B0001346927942F040029A710B4B5A7902F0FD
:1045C000EF0210F0100F18BF42F01002064B5A71A4
:1045D0009B7903F0EF0310F0200F18BF43F0100396
:1045E000014A9371704700BF00A0064010B5144BFC
:1045F0001B6813F4806F21D0124B1B7813F0FF0F50
:1046000006D0104CFFF738FF237813F0FF0FF9D1D5
:104610004FF400520C4B1A6000230C4AD37040F246
:1046200003120B490A6004310A600A4A13700A4AED
:1046300013700A4B1B680BB101221A7010BD00BF2A
:10464000348004409095FF1F84E100E000A0064004
:1046500040A004401496FF1F9195FF1F8C95FF1FEB
:1046600010B50446094A137813F0FF0FFBD120461A
:104670000121FEF7EDFF20460021FEF7B7FF044BB6
:1046800053F83420034B1A6010BD00BF9095FF1FF4
:1046900050BB00001896FF1F10B50D4B1B6813F49C
:1046A000806F12D021280CD80A4C0B4B53F83030B5
:1046B00023600121FEF7CCFF236800221A7001203D
:1046C00010BD0020034B186010BD002010BD00BFBE
:1046D000348004408C95FF1F50BB0000114B1B68B9
:1046E00013F4806F1BD0122804D140F202320E4B1B
:1046F0001A600DE0142804D140F202320B4B1A600C
:1047000006E00B4B5A7B02F0FE025A730020704702
:10471000074B5A7B42F001025A7301207047002078
:10472000704700BF348004400CA0044014C0044013
:1047300000A006402DE9F04107461F4B1B6813F40B
:10474000806F37D01D4B1B680BB101221A701C4BB8
:104750001C780134402C28BF00241A4D1A4EDFF873
:104760006C8017E0FEF74AFD40280FDC337913F028
:10477000800F0FD02B780133402B28BF002318F86F
:104780000320D2B2F271DBB22B7003E0FF2801DD0F
:10479000FFF772FE2B78DBB29C42E3D0FFB20B4BEB
:1047A0001F5501220A4B1A70E4B2054B1C70BC2243
:1047B000054BDA70BDE8F081348004401896FF1F85
:1047C0001C96FF1F1596FF1F00A006409495FF1F23
:1047D0009095FF1F2DE9F84F0746284B1B6813F4EF
:1047E000806F49D0264B1B680BB101221A7007EB72
:1047F000010B5F453DD2DFF89890224EDFF88C80A8
:10480000DFF890A099F800400134402C28BF002424
:104810003578EDB2A54220D1BC2388F80330FEF7ED
:10482000EDFC402811DC98F8043013F0800F10D014
:1048300033780133402B28BF00231AF80320D2B26B
:1048400088F80720DBB2337003E0FF2801DDFFF7B3
:1048500013FE3378DBB29D42E1D017F8013B0AF832
:1048600004300122084B1A70E4B289F800405F4519
:10487000C8D1BC22054BDA70BDE8F88F3480044003
:104880001896FF1F1596FF1F9095FF1F00A006406A
:104890001C96FF1F9495FF1F10B5064B1B7813F055
:1048A000FF0F06D0034CFFF7E7FD237813F0FF0F4F
:1048B000F9D110BD9095FF1F064B1B78DBB2064A5D
:1048C0001278D2B293422CBF3F3202F1FF32D01A9B
:1048D000704700BF1C96FF1F1596FF1F054B1878E9
:1048E000C0B2054B1B78DBB2984238BF4030C01ACB
:1048F000704700BF1496FF1F9195FF1F10B4184B0F
:104900001A78D2B2174B1B78DBB29A4218D0013317
:104910003F2B18D81449C85CC0B2DCB211490C70E6
:1049200012490968C9B19A4203D300E00023D31A9F
:1049300001E04032D31A1A2B0FDC00230B700CE07D
:104940004FF0FF3009E0084B1878C0B20021054B4A
:104950001970064B19680029E8D15DF8044B7047BF
:104960001496FF1F9195FF1FD495FF1F8C95FF1F75
:10497000094B1A78D2B2094B1B78DBB29A4207D0A6
:104980000133402B28BF0023054AD05CC0B27047DA
:104990004FF0FF30704700BF1496FF1F9195FF1F27
:1049A000D495FF1F0D4B1B6813F4806F14D00C4B74
:1049B000DA7802F0CB02DA7040225A74DA7842F0E8
:1049C0003402DA70074B1A78D2B2074B1A70074BD1
:1049D0001B680BB100221A70704700BF348004407E
:1049E00000A006409195FF1F1496FF1F8C95FF1F96
:1049F00070B43D4B1B7913F0300F33D072B63A4B85
:104A00009B7D03F0FF022BB9374BDA7940225A74B1
:104A100062B627E062B6354B1978C9B2344B1C78C0
:104A2000E4B2314D334EEB79D8B24B1C402B28BF4A
:104A30000023A3421CBFF0541946531E13F0FF027B
:104A4000F1D1CAB2294B1A702B4B1B6853B1A1424A
:104A50002EBFC4EB0101C4F1400409192729C4BFCA
:104A600001221A70204BDA78D2B212F0800F27D0D0
:104A70001B7913F0800F23D0204B1C78E4B2204B1D
:104A80001B78DBB29C4210D017491E4D01E0A342B7
:104A90000BD00133402B28BF00230879E85CC0B25B
:104AA000C871087DC0B20728F1D9DBB214490B7078
:104AB0000D4B1B7913F0800F02D07C210A4BD9706B
:104AC00012F0400F0ED0084B1B7913F0400F09D0A5
:104AD00000220D4B1A700D4B1B6803B11A703C225B
:104AE000014BDA7070BC704700A006401496FF1F9F
:104AF0009195FF1FD495FF1F8C95FF1F1C96FF1FDC
:104B00001596FF1F9495FF1F9095FF1F1896FF1F86
:104B1000194B1A6842F400621A600023174A137096
:104B2000174A1370174A1370174A1370174A1370F5
:104B300040F21332164B1A604FF4517204331A606C
:104B4000C0F34432134B1A70C0F347125A7000F08E
:104B50001F00987204229A700221D9745A75882213
:104B60001A743C22DA7040220B4B1A704FF4004248
:104B7000A3F22B331A607047348004409096FF1FD5
:104B80002596FF1F9896FF1F9196FF1F2496FF1FE3
:104B90000CB0044000B006402FE400E0164B9B78B8
:104BA00003F0EC0300F00302134310F0040F18BFEE
:104BB00043F01003104A937000F00F03042B04D14C
:104BC0001346927942F040029A710B4B5A7902F0E7
:104BD000EF0210F0100F18BF42F01002064B5A718E
:104BE0009B7903F0EF0310F0200F18BF43F0100380
:104BF000014A9371704700BF00B0064010B5144BD6
:104C00001B6813F4006F21D0124B1B7813F0FF0FB9
:104C100006D0104CFFF730FC237813F0FF0FF9D1CA
:104C20004FF400420C4B1A6000230C4AD37040F240
:104C300003120B490A6004310A600A4A13700A4AD7
:104C400013700A4B1B680BB101221A7010BD00BF14
:104C5000348004402496FF1F84E100E000B0064049
:104C60000CB004409096FF1F2596FF1F2096FF1F53
:104C700010B50446094A137813F0FF0FFBD1204604
:104C80000121FEF7E5FC20460021FEF7AFFC044BB6
:104C900053F83420034B1A6010BD00BF2496FF1F49
:104CA00050BB00009496FF1F10B50D4B1B6813F40A
:104CB000006F12D021280CD80A4C0B4B53F830301F
:104CC00023600121FEF7C4FC236800221A70012032
:104CD00010BD0020034B186010BD002010BD00BFA8
:104CE000348004402096FF1F50BB00000D4B1B6812
:104CF00013F4006F13D017280AD140F202320A4B86
:104D00001A600A4B5A7B42F001025A730120704725
:104D1000064B5A7B02F0FE025A73002070470020B7
:104D2000704700BF3480044008B0044000B0064023
:104D30002DE9F04107461F4B1B6813F4006F37D075
:104D40001D4B1B680BB101221A701C4B1C780134DF
:104D5000282C28BF00241A4D1A4EDFF86C8017E06B
:104D6000FEF74CFA40280FDC337913F0800F0FD098
:104D70002B780133282B28BF002318F80320D2B248
:104D8000F271DBB22B7003E0FF2801DDFFF774FB4B
:104D90002B78DBB29C42E3D0FFB20B4B1F550122B4
:104DA0000A4B1A70E4B2054B1C70BC22054BDA703A
:104DB000BDE8F081348004409496FF1F9896FF1F51
:104DC0009196FF1F00B006402896FF1F2496FF1FF4
:104DD0002DE9F84F0746284B1B6813F4006F49D0A4
:104DE000264B1B680BB101221A7007EB010B5F45C4
:104DF0003DD2DFF89890224EDFF88C80DFF890A04B
:104E000099F800400134282C28BF00243578EDB2F1
:104E1000A54220D1BC2388F80330FEF7EFF94028E3
:104E200011DC98F8043013F0800F10D03378013380
:104E3000282B28BF00231AF80320D2B288F80720B5
:104E4000DBB2337003E0FF2801DDFFF715FB337899
:104E5000DBB29D42E1D017F8013B0AF80430012291
:104E6000084B1A70E4B289F800405F45C8D1BC22F3
:104E7000054BDA70BDE8F88F348004409496FF1F2C
:104E80009196FF1F2496FF1F00B006409896FF1FC3
:104E90002896FF1F10B5064B1B7813F0FF0F06D0A6
:104EA000034CFFF7E9FA237813F0FF0FF9D110BD97
:104EB0002496FF1F064B1B78DBB2064A1278D2B24B
:104EC00093422CBF273202F1FF32D01A704700BF45
:104ED0009896FF1F9196FF1F054B1878C0B2054B9F
:104EE0001B78DBB2984238BF4030C01A704700BF11
:104EF0009096FF1F2596FF1F10B4184B1A78D2B258
:104F0000174B1B78DBB29A4218D001333F2B18D8CD
:104F10001449C85CC0B2DCB211490C70124909686E
:104F2000C9B19A4203D300E00023D31A01E0403212
:104F3000D31A1A2B0FDC00230B700CE04FF0FF305C
:104F400009E0084B1878C0B20021054B1970064BD8
:104F500019680029E8D15DF8044B70479096FF1F4F
:104F60002596FF1F5096FF1F2096FF1F094B1A78AA
:104F7000D2B2094B1B78DBB29A4207D00133402BE7
:104F800028BF0023054AD05CC0B270474FF0FF3005
:104F9000704700BF9096FF1F2596FF1F5096FF1F7A
:104FA0000D4B1B6813F4006F14D00C4BDA7802F031
:104FB000CB02DA7040225A74DA7842F03402DA70A6
:104FC000074B1A78D2B2074B1A70074B1B680BB10C
:104FD00000221A70704700BF3480044000B00640C1
:104FE0002596FF1F9096FF1F2096FF1F70B43D4B24
:104FF0001B7913F0300F33D072B63A4B9B7D03F020
:10500000FF022BB9374BDA7940225A7462B627E097
:1050100062B6354B1978C9B2344B1C78E4B2314DC5
:10502000334EEB79D8B24B1C402B28BF0023A34250
:105030001CBFF0541946531E13F0FF02F1D1CAB23F
:10504000294B1A702B4B1B6853B1A1422EBFC4EBE6
:105050000101C4F1400409192729C4BF01221A70B3
:10506000204BDA78D2B212F0800F27D01B7913F0E0
:10507000800F23D0204B1C78E4B2204B1B78DBB28E
:105080009C4210D017491E4D01E0A3420BD00133C2
:10509000282B28BF00230879E85CC0B2C871087DBE
:1050A000C0B20728F1D9DBB214490B700D4B1B7944
:1050B00013F0800F02D07C210A4BD97012F0400F00
:1050C0000ED0084B1B7913F0400F09D000220D4B76
:1050D0001A700D4B1B6803B11A703C22014BDA7039
:1050E00070BC704700B006409096FF1F2596FF1FCA
:1050F0005096FF1F2096FF1F9896FF1F9196FF1F47
:105100002896FF1F2496FF1F9496FF1F174B1A68BF
:1051100042F480521A600023154A1370154A137026
:10512000154A1370154A1370154A137040F2133163
:10513000144A11604FF4517104321160C0F34431CC
:10514000114A1170C0F34711517000F01F009072A6
:10515000937013742C23D37040220C4B1A704FF4AD
:105160000032A3F22D331A60704700BF3480044030
:105170000C97FF1FA196FF1F1497FF1F0D97FF1F8E
:10518000A096FF1F08C0044000C0064031E400E0C4
:10519000164B9B7803F0EC0300F00302134310F06E
:1051A000040F18BF43F01003104A937000F00F0370
:1051B000042B04D11346927942F040029A710B4BB2
:1051C0005A7902F0EF0210F0100F18BF42F01002EF
:1051D000064B5A719B7903F0EF0310F0200F18BFB4
:1051E00043F01003014A9371704700BF00C00640AE
:1051F00010B5144B1B6813F4805F21D0124B1B7841
:1052000013F0FF0F06D0104CFFF736F9237813F098
:10521000FF0FF9D14FF400320C4B1A6000230C4AF7
:10522000D37040F203120B490A6004310A600A4A43
:1052300013700A4A13700A4B1B680BB101221A70D3
:1052400010BD00BF34800440A096FF1F84E100E041
:1052500000C0064008C004400C97FF1FA196FF1F26
:105260009C96FF1F10B50446094A137813F0FF0FF0
:10527000FBD120460121FEF7EBF920460021FEF785
:10528000B5F9044B53F83420034B1A6010BD00BF2E
:10529000A096FF1F50BB00001097FF1F10B50D4BCD
:1052A0001B6813F4805F12D021280CD80A4C0B4BDA
:1052B00053F8303023600121FEF7CAF92368002239
:1052C0001A70012010BD0020034B186010BD002093
:1052D00010BD00BF348004409C96FF1F50BB0000EF
:1052E0000D4B1B6813F4805F13D00E280AD140F2D7
:1052F00002320A4B1A600A4B5A7B42F001025A737F
:1053000001207047064B5A7B02F0FE025A730020C0
:1053100070470020704700BF3480044004C0044040
:1053200000C006402DE9F04107461F4B1B6813F4EF
:10533000805F37D01D4B1B680BB101221A701C4BCC
:105340001C780134282C28BF00241A4D1A4EDFF88F
:105350006C8017E0FDF752FF40280FDC337913F023
:10536000800F0FD02B780133282B28BF002318F88B
:105370000320D2B2F271DBB22B7003E0FF2801DD13
:10538000FFF77AF82B78DBB29C42E3D0FFB20B4BED
:105390001F5501220A4B1A70E4B2054B1C70AC2257
:1053A000054BDA70BDE8F081348004401097FF1F90
:1053B0001497FF1F0D97FF1F00C00640A496FF1F04
:1053C000A096FF1F38B505460C4629B115F8010B0C
:1053D000FFF7A8FF013CF9D138BD00BF10B5064B5F
:1053E0001B7813F0FF0F06D0034CFFF745F8237826
:1053F00013F0FF0FF9D110BDA096FF1F064B1B78CD
:10540000DBB2064A1278D2B293422CBF273202F1A5
:10541000FF32D01A704700BF1497FF1F0D97FF1F70
:10542000054B1878C0B2054B1B78DBB2984238BFE9
:105430004030C01A704700BF0C97FF1FA196FF1F96
:1054400010B4184B1A78D2B2174B1B78DBB29A42C1
:1054500018D001333F2B18D81449C85CC0B2DCB255
:1054600011490C7012490968C9B19A4203D300E08E
:105470000023D31A01E04032D31A1A2B0FDC002389
:105480000B700CE04FF0FF3009E0084B1878C0B209
:105490000021054B1970064B19680029E8D15DF809
:1054A000044B70470C97FF1FA196FF1FCC96FF1F60
:1054B0009C96FF1F094B1A78D2B2094B1B78DBB2BE
:1054C0009A4207D00133402B28BF0023054AD05C05
:1054D000C0B270474FF0FF30704700BF0C97FF1FFE
:1054E000A196FF1FCC96FF1F054B1A78D2B2054B31
:1054F0001A70054B1B680BB100221A70704700BF71
:10550000A196FF1F0C97FF1F9C96FF1F2F4B1B7927
:1055100013F0200F23D02D4BDB79D9B22C4B1B7805
:105520000133402B28BF00232A4A1278D2B29A4274
:1055300004D0294AD154D9B2254A1170274A11689A
:1055400069B1274A1278D2B293422EBFC2EB03034D
:10555000C2F140029B18272BC4BF01230B701B4BC9
:10556000DB78DBB213F0800F1CD0184A127912F0EE
:10557000800F17D01B4A1178C9B2194A1278D2B2DB
:10558000914203D16C21114AD1700BE00132282ADB
:1055900028BF00221449885CC0B20C49C871D2B23D
:1055A0000F490A7013F0400F0ED0084B1B7913F00F
:1055B000400F09D000220D4B1A700D4B1B6803B130
:1055C0001A702C22014BDA70704700BF00C00640F1
:1055D0000C97FF1FA196FF1FCC96FF1F9C96FF1FE5
:1055E0000D97FF1F1497FF1FA496FF1FA096FF1F84
:1055F0001097FF1F00B585B072B61B4B70221A7052
:1056000041211A4A11700F21013A117080221A703B
:105610001A46137813F0800FFBD0154B186862B64A
:10562000144B98429CBF00EB8000400001A90A2265
:10563000FEF744FF9DF804307BB908E001A9595CEE
:1056400031B19180023201330A2BF7D100E00023FF
:1056500001335B00084A137003E0074A53800123BB
:10566000ECE705B05DF804FB0000024007000240D3
:10567000080002407F969800FC87FF1F08B503686A
:105680001B68C9B2984708BD08B503681B68C9B252
:10569000984708BD08B503681B68C9B2984708BD9C
:1056A00008B503681B68C9B2984708BD08B54B0820
:1056B00003F1377000F5D840B0FBF1F0FEF720FFA2
:1056C00008BD00BF10B514464B0803F1377000F554
:1056D000D840B0FBF1F0FEF713FF2046FEF756FF6F
:1056E00010BD00BF08B5FEF781FF08BD08B508462C
:1056F000FEF7B6FF08BD00BF08B50846FEF7CCFFB1
:10570000003018BF012008BD08B50846FEF7E6FFC7
:10571000003018BF012008BD08B5FFF7DFF808BD4D
:1057200008B5FFF725F908BD08B5FFF7E7F808BD8C
:1057300008B5FFF7B1F808BD08B5FFF733F908BDA4
:1057400008B5FFF7B9F808BD08B50846FEF7F2FF3F
:10575000012008BD08B50846FEF7ECFF012008BD92
:1057600010B5144608461146FFF734F8204610BD20
:1057700038B50D46084602F035F90446284621465C
:10578000FFF728F8204638BD704700BF044B0022C1
:105790001A714FF47A7199601A73024A1A6070474D
:1057A0001897FF1FE0BC000008B503681B68C9B26A
:1057B000984708BD08B503681B68C9B2984708BD7B
:1057C00008B503681B68C9B2984708BD08B50368E7
:1057D0001B68C9B2984708BD08B54B0803F137707C
:1057E00000F5D840B0FBF1F0FFF792F908BD00BF1B
:1057F00010B514464B0803F1377000F5D840B0FBE4
:10580000F1F0FFF785F92046FFF7C8F910BD00BF9A
:1058100008B5FFF7F3F908BD08B50846FFF728FA01
:1058200008BD00BF08B50846FFF73EFA003018BFB4
:10583000012008BD08B50846FFF758FA003018BF28
:10584000012008BD08B5FFF747FB08BD08B5FFF705
:105850008DFB08BD08B5FFF74FFB08BD08B5FFF786
:1058600019FB08BD08B5FFF79BFB08BD08B5FFF79E
:1058700021FB08BD08B50846FFF75AFA012008BD0C
:1058800008B50846FFF754FA012008BD10B51446C4
:1058900008461146FFF79CFA204610BD38B50D4664
:1058A000084602F09FF8044628462146FFF790FA82
:1058B000204638BD704700BF044B00221A714FF4D8
:1058C0007A7199601A73024A1A6070472897FF1F0D
:1058D00038BD000008B503681B68C9B2984708BD09
:1058E00008B503681B68C9B2984708BD08B50368C6
:1058F0001B68C9B2984708BD08B503681B68C9B2E0
:10590000984708BD08B54B0803F1377000F5D8403B
:10591000B0FBF1F0FFF7FAFB08BD00BF10B514466D
:105920004B0803F1377000F5D840B0FBF1F0FFF7FA
:10593000EDFB2046FFF72CFC10BD00BF08B5FFF7BC
:1059400057FC08BD08B50846FFF78CFC08BD00BF32
:1059500008B50846FFF7A2FC003018BF012008BDBB
:1059600008B50846FFF7BCFC003018BF012008BD91
:1059700008B5FFF755FD08BD08B5FFF79BFD08BD4D
:1059800008B5FFF75DFD08BD08B5FFF727FD08BDA9
:1059900008B5FFF7A9FD08BD08B5FFF72FFD08BD45
:1059A00008B50846FFF7BEFC012008BD08B508464B
:1059B000FFF7B8FC012008BD10B514460846114693
:1059C000FFF700FD204610BD38B50D46084602F031
:1059D00009F8044628462146FFF7F4FC204638BD66
:1059E000704700BF044B00221A714FF47A7199601E
:1059F0001A73024A1A6070473897FF1F90BD000063
:105A000081F0004102E000BF83F0004330B54FEA6F
:105A100041044FEA430594EA050F08BF90EA020FDC
:105A20001FBF54EA000C55EA020C7FEA645C7FEA6F
:105A3000655C00F0E2804FEA5454D4EB5555B8BF92
:105A40006D420CDD2C4480EA020281EA030382EA03
:105A5000000083EA010180EA020281EA0303362D95
:105A600088BF30BD11F0004F4FEA01314FF4801C68
:105A70004CEA113102D0404261EB410113F0004F7A
:105A80004FEA03334CEA133302D0524263EB430331
:105A900094EA050F00F0A780A4F10104D5F1200ECF
:105AA0000DDB02FA0EFC22FA05F2801841F100012A
:105AB00003FA0EF2801843FA05F359410EE0A5F1FE
:105AC00020050EF1200E012A03FA0EFC28BF4CF02F
:105AD000020C43FA05F3C01851EBE37101F00045E5
