:1000000000800020BD010000F9660000BD66000010
:10001000BD660000BD660000BD660000BD66000054
:10002000BD660000BD660000BD660000F966000008
:10003000F9660000BD660000F9660000AD660000CC
:10004000F9660000F9660000F9660000F966000034
:10005000F9660000F9660000F9660000F966000024
:10006000F9660000F9660000F9660000F966000014
:10007000F9660000F9660000F9660000F966000004
:10008000F9660000F9660000F9660000F9660000F4
:10009000F9660000F9660000F9660000F9660000E4
:1000A0000D5D0000F9660000F9660000F9660000C9
:1000B000F9660000F9660000F9660000F9660000C4
:1000C000F9660000F9660000F9660000F9660000B4
:1000D000F9660000F9660000F9660000F9660000A4
:1000E000F9660000F9660000F9660000F966000094
:1000F000F9660000217F0000F96600001D85000000
:10010000F96600003D8A0000F9660000F96600000B
:10011000F9660000F9660000F9660000F966000063
:10012000F9660000F9660000F9660000F966000053
:10013000F9660000F9660000F9660000F966000043
:10014000F9660000F9660000F9660000F966000033
:10015000F9660000F9660000F9660000F966000023
:10016000F9660000A96E0000F9660000F96600005B
:10017000F9660000F9660000F9660000F966000003
:10018000F9660000F9660000F9660000F9660000F3
:10019000F9660000F9660000F9660000F9660000E3
:1001A000F9660000F9660000F9660000F9660000D3
:1001B000F9660000F9660000F9660000574B4CF242
:1001C000205210B51A804DF628121A8000BF00BFC9
:1001D00006F096FA524B4FF010621A60514A9A603C
:1001E000514ADA60A3F53043203B1A6812F480725A
:1001F00004D14E490A604FF4A8521A604C4B1A7849
:10020000110703D51A7842F008021A70494B4A4C7C
:100210004A482A221A704A4A00239918A14203D256
:10022000195899500433F8E7464B474900228B424E
:1002300002D243F8042BFAE74448454900235A58B0
:100240001A500433B3F5DE7FF9D1424B424A802184
:1002500003F8011B9342FBD1404B3C4A1A60404BD0
:100260000A221A70A3F5805324225A70A0221A7011
:100270009A799207FCD59A79D406FCD4394A9379B5
:1002800003F00C03082B374BF9D103221A714022DB
:100290005A719A799006FCD5324A9179314B4906C8
:1002A000FBD5314A314911600221516020221A7078
:1002B0009A7902F00C020C2AFAD12D4B2D4A1A60C1
:1002C0002D4B45F6BF521A6000225A60072243F8B0
:1002D000042C2A4AC3F80C2D62B606F0A7FC134B77
:1002E0001B68DA0705D5264806F004FC254B264A8C
:1002F0001A60264B1B785B0609D5224C224A2368DC
:10030000934204D11E4806F0F5FB0023236009F058
:10031000C5FF06F0FBF907F00FFBFEE70E200540D6
:1003200030800440823F04000100002B14D00340C1
:1003300002D0074000E007409090FF1FC416010064
:100340006087FF1F9090FF1F34A0FF1F0082FF1FD8
:100350000000000000E400E05FE400E008ED00E0E1
:100360000050064000400640448004400000033333
:1003700004800440C010050014E000E000002020CC
:1003800006281E581CE00340A5C3945A00F00740FD
:10039000FFFFFFFFFFFFFFFFFFFFFFFFFFFFFFFF6D
:1003A000FFFFFFFFFFFFFFFFFFFFFFFFFFFFFFFF5D
:1003B000FFFFFFFFFFFFFFFFFFFFFFFFFFFFFFFF4D
:1003C000FFFFFFFFFFFFFFFFFFFFFFFFFFFFFFFF3D
:1003D000FFFFFFFFFFFFFFFFFFFFFFFFFFFFFFFF2D
:1003E000FFFFFFFFFFFFFFFFFFFFFFFFFFFFFFFF1D
:1003F000FFFFFFFFFFFFFFFFFFFFFFFFFFFFFFFF0D
:10040000FFFFFFFFFFFFFFFFFFFFFFFFFEFFFFFFFD
:1004100010B5054C237833B9044B13B10448AFF33E
:1004200000800123237010BD9090FF1F000000008A
:10043000BC16010008B5064B1BB106480649AFF3D0
:1004400000800648036813B1054B03B1984708BD07
:1004500000000000BC1601009490FF1F9090FF1F49
:1004600000000000014B0360704700BF40E0000047
:10047000014B0360704700BF40E0000010B5044628
:10048000024B036007F060FA204610BD40E0000018
:1004900010B50446FFF7ECFF204607F055FA20465A
:1004A00010BD00BFF8B504461D460F2A15DD0F68C4
:1004B0004E688868CB686761A661E0612362201D91
:1004C0000021226B0AF052FA84F834501023E362C0
:1004D000802384F835300120F8BD0020F8BD00BF2E
:1004E00040F3C01303F01B0383EA4000C0B270471F
:1004F0002DE9F04F87B0044689460192002A00F0AA
:100500007781C44F7E1E0937C34D01F1100099F861
:100510000D30EA5C99F800305A4016F8013F53401C
:1005200089F8003099F80E30EA5C99F801305340B0
:1005300089F8013099F80F30EA5C99F8023053409D
:1005400089F8023099F80C30EA5C99F8033053408E
:1005500089F8033009F1040313F8011B13F8052C83
:100560004A4003F8012C8342F6D1BE42CFD100238A
:1005700019F80310E25C4A40E2540133102BF7D122
:1005800036E10198A8B309F10F03002213F801091D
:1005900013F8031C41405970013A12F10C0FF5D1C8
:1005A00099F80D309C49CA5C99F800305A4003987C
:1005B000437A534089F8003099F80E30CA5C99F8B4
:1005C0000130534089F8013099F80F30CA5C99F82E
:1005D0000230534089F8023099F80C30CA5C99F81F
:1005E0000330534089F80330029911F0FF0F27D1EF
:1005F00092E0002319F80310E25C4A408648825CCE
:10060000E2540133102BF5D1637862796270627A1B
:100610006271627B62726373A278A379A17AA1701E
:10062000A17BA171A272A373E37BE27AE273E27908
:10063000E272E278E271E3700299CBB2082B69D8DA
:100640000025CDF81090A9464FEA8905EDB2019A30
:1006500032B314F805B0AF1CE05D8BEA0000FFF781
:100660003FFFFFF73DFF824605F10108EE1CA05D4C
:1006700014F808305840FFF733FFFFF731FF8AEADC
:100680000B0B04F805B014F80830434004F80830A8
:10069000E35D8AEA030A04F807A0A35D5840A05569
:1006A00014F805A005F1010B14F80B008AEA00000C
:1006B00005F10208EE1CA75D14F808305F404740C2
:1006C000FFF70EFF87EA0A035840605514F80B50F5
:1006D00014F808006840FFF703FF7D40684004F805
:1006E0000B0014F80850A05D6840FFF7F9FE7D404C
:1006F000684004F80800A55D85EA0A00FFF7F0FEEF
:100700006F407840A05509F10109B9F1040F9BD160
:10071000DDF81090019B1BB3637B627A6273627990
:100720006272627862716370A27AA37BA178A1720F
:10073000A179A173A270A371E378E279E270E27A01
:10074000E271E27BE272E3730023E25C3348815C96
:1007500019F803204A40E2540133102BF5D132E05E
:1007600099F80D302C49CA5C99F800305A4002992A
:1007700028480B5C534089F8003099F80E30264821
:10078000C25C99F80130534089F8013099F80F3074
:10079000C25C99F80230534089F8023099F80C3065
:1007A000C25C99F80330534089F8033009F104031F
:1007B000059813F8011B13F8052C4A4003F8012C87
:1007C0008342F6D11CE0029901310291039A013A69
:1007D00003920A297FF4D5AE019B0BBB002319F8C5
:1007E0000310E25C4A40E2540133102BF7D117E0CA
:1007F000084803900021029109F110020592C0E619
:10080000029B013302930398013803900A2B7FF473
:10081000B8AEE3E768E1000068E0000074E10000C2
:1008200007B0BDE8F08F00BFF0B585B00D461646A5
:100830001F46C46A102C16D16C46034653F8140F99
:1008400059689A68DB680FC430687168B268F368E9
:1008500028606960AA60EB60284669463A46FFF75F
:1008600047FE012000E0002005B0F0BD0022C2627A
:1008700080F83420FF2280F83520024A02601022DE
:100880000263704758E00000014B0360704700BFEF
:1008900040E0000010B50446FFF7F6FF204607F0E1
:1008A00053F8204610BD00BF2DE9F00302784478CC
:1008B00083781B0443EA04231343C27843EA0262A9
:1008C0000479457983791B0443EA05232343C079DE
:1008D00043EA006082EA101303F00F335A4080EAC3
:1008E000031382EA824457480440624082EA9444F7
:1008F00083EA83420240534083EA924384EA5300EE
:1009000000F05530444083EA400080EA142303F0AD
:10091000FF13584084EA032383EA500202F0553261
:10092000534080EA4202C2F3074403F0704502F4E8
:100930007F4040EA1510D2B240EA0240204323F043
:1009400070430831404A151F02F13C083F4A55F8F0
:10095000044F3CB14FEA836C4CEA930C870647EA9C
:10096000900706E04FEAC36C4CEA530CC70647EA0F
:1009700050072CF0704327F07040DE0906F03C066B
:10098000C3F38114264340369C0B04F03004C3F3B8
:10099000433944EA0904803452F8266052F824406E
:1009A00026430CF03F0C52F82C4026435C0D04F01B
:1009B0000604C3F3005C44EA0C044FEA935C0CF0B9
:1009C000380C44EA0C04C03452F824402643C0F3E7
:1009D000C53C0CF5C07C07F03F0707F5807452F862
:1009E0002C7052F824403C43070A07F03C07C0F340
:1009F000C11C47EA0C0707F5A07752F827703C4363
:100A0000870D07F03007C0F3435C47EA0C0707F592
:100A1000E07752F827703C43B7B247EA04474FEA01
:100A2000B77741F8087C240C240444EA16444FEAC2
:100A3000B46441F8044C0831454588D1BDE8F00361
:100A4000704700BF0000CCCC90F2000090EA00009C
:100A50002DE9F0010468436884EA131505F00F35A9
:100A60006C4083EA051585EA1446B6B2754084EAFF
:100A7000064686EA950303F033335E4085EA830336
:100A800083EA162404F0FF14634086EA042484EA0F
:100A9000530505F055356C4083EA45054FEA7474FB
:100AA0004FEA7575002A00F082800A468031954B26
:100AB00017686740566866404FEA3616C7F38508E0
:100AC000C7F3852C0CF1800C53F8288053F82CC008
:100AD00088EA0C0C4FEA976808F5C07853F828802C
:100AE0008CEA080CC7F3854707F5807753F8277021
:100AF0008CEA070CB70E07F5E07753F827708CEAFD
:100B0000070CC6F38507403753F827708CEA070CAB
:100B1000C6F38527C03753F827708CEA070CC6F355
:100B2000854606F5A07653F826708CEA07067540D0
:100B300097686F40D6686E404FEA36164FEA976C5A
:100B40000CF5C07C53F82CC084EA0C0CC7F3850468
:100B500053F824408CEA040CC7F38524803453F8FE
:100B600024408CEA0404C7F3854707F5807753F8DF
:100B700027707C40B70E07F5E07753F827707C406C
:100B8000C6F38507403753F827707C40C6F38527A6
:100B9000C03753F827707C40C6F3854606F5A0762B
:100BA00053F82660744010328A4281D17FE00827D2
:100BB000544B8E6F6640CA6F62404FEA3212C6F3E2
:100BC0008508C6F3852C0CF1800C53F8288053F867
:100BD0002CC088EA0C0C4FEA966808F5C07853F8E8
:100BE00028808CEA080CC6F3854606F5807653F813
:100BF00026608CEA060C960E06F5E07653F8266021
:100C00008CEA060CC2F38506403653F826608CEA5F
:100C1000060CC2F38526C03653F826608CEA060C13
:100C2000C2F3854202F5A07253F822608CEA0602F4
:100C300055400E6F6E404A6F6A404FEA32124FEADB
:100C4000966C0CF5C07C53F82CC084EA0C0CC6F3EF
:100C5000850453F824408CEA040CC6F385248034C0
:100C600053F824408CEA0404C6F3854606F58076E2
:100C700053F826607440960E06F5E07653F8266029
:100C80007440C2F38506403653F826607440C2F3C0
:100C90008526C03653F826607440C2F3854202F5BB
:100CA000A07253F8222054401039013F81D14FEAFD
:100CB000F5054FEAF40485EA540303F055335D402B
:100CC00084EA430484EA152202F0FF12544085EAC4
:100CD000022282EA940303F033335A4084EA830306
:100CE00083EA124189B24B4082EA014181EA131240
:100CF00002F00F325140016083EA02134360BDE805
:100D0000F001704790E2000070B582B00C460578A3
:100D100046788178090441EA06212943C57841EAE9
:100D200005610091057946798179090441EA062136
:100D30002943C07941EA00610191684611461A468B
:100D4000FFF786FE009B23701A0A62701A0CA270CD
:100D50001B0EE370019B23711A0A62711A0CA271B7
:100D60001B0EE37102B070BD70B505460C46C16A3A
:100D7000102916D0182943D0082970D143B910463C
:100D8000214605F158020123FFF7BEFF012070BD87
:100D90001046214605F158020023FFF7B5FF012058
:100DA00070BDB3B900F15806104621463246012302
:100DB000FFF7AAFF2046214605F1D8020023FFF7DE
:100DC000A3FF2046214632460123FFF79DFF012065
:100DD00070BD00F158061046214632460023FFF749
:100DE00093FF2046214605F1D8020123FFF78CFF2F
:100DF0002046214632460023FFF786FF012070BDC2
:100E0000B3B91046214605F158020123FFF77CFFD4
:100E10002046214605F1D8020023FFF775FF204642
:100E2000214605F5AC720123FFF76EFF012070BD6E
:100E30001046214605F5AC720023FFF765FF2046FA
:100E4000214605F1D8020123FFF75EFF2046214627
:100E500005F158020023FFF757FF012070BD002065
:100E600070BD00BF0022C26280F83420FF2280F8EB
:100E70003520024A026008220263704780E20000C7
:100E800070B4002480250E5D26F001061D4218BFB7
:100E900046F0010606556D080134082CF3D1082AE6
:100EA00007DD0823CC5C24F00104C45401339342D1
:100EB000F8D170BC704700BF2DE9F04104461646DA
:100EC000984600F114073846FFF7DAFF102E14D0C9
:100ED000182E21D0082E3ED1214600250A7D0A7702
:100EE00001350131082DF9D1384604F15801FFF7D9
:100EF000DBFC002384F8353022E0384604F1580149
:100F0000FFF7D2FC04F11C0004F1D801FFF7CCFC80
:100F1000002384F8353013E0384604F15801FFF718
:100F2000C3FC04F11C0004F1D801FFF7BDFC04F17F
:100F3000240004F5AC71FFF7B7FC402384F835308A
:100F4000201D0021226B09F011FD84F83480E66237
:100F50000120BDE8F0810020BDE8F08138B50446ED
:100F6000154652B18368D0186268904207DD09487F
:100F7000002104F041FC002038BD012038BD20686C
:100F800018442A4605F082F8A3681D44A560012094
:100F900038BD00BFE0F200002DE9F04F89B00446F3
:100FA000026B082A14BF4FF0870B4FF01B0B002178
:100FB000009101910291039100F10408404609F06B
:100FC000D5FCD4F8309099FBF9F309FB139323B9BE
:100FD00099FBF9F3002B05DC50E03248002104F0C6
:100FE0000BFC49E000266D46B2462368DF682046C8
:100FF00004A92A465346B84700283DD004A8014614
:101000004246236B04F0C8FC40462946226B05F09B
:101010003DF8276B284604A93A4605F037F83D44C9
:101020000136236B99FBF3F39E42DEDB26E0236B54
:10103000013B234493F836208BEA020283F83620E2
:1010400004F1460528463146226B05F01FF8284674
:10105000216B04F0C9FC94F93630002B0ADA236BBB
:10106000013B1C4494F846308BEA030B84F846B0ED
:10107000012013E0012011E000200FE004F136060A
:1010800030466946226B05F001F83046216B04F0CA
:10109000ABFC9DF90030002BD2DAC8E709B0BDE8FF
:1010A000F08F00BFFCF2000090F8A006704700BF70
:1010B00010B50C460C2900F0BB80AF2900F0B880B9
:1010C000002900F0B5805B48002104F095FBAE2CB0
:1010D00068D018D87E2C47D00AD81C2C32D002D821
:1010E0000E2C29D09AE01E2C32D0402C36D095E020
:1010F0009E2C45D002D89D2C3CD08FE0A02C45D012
:10110000A12C49D08AE0CE2C6AD00AD8C12C55D067
:1011100002D8BE2C4CD081E0CA2C55D0CD2C59D051
:101120007CE0EE2C68D002D8DE2C5FD076E0F02C8C
:1011300068D0F12C6CD071E03F48002104F05CFBDA
:10114000002010BD3D48002104F056FB002010BDDA
:101150003B48002104F050FB002010BD394800211D
:1011600004F04AFB002010BD3748002104F044FB86
:10117000002010BD3548002104F03EFB002010BDCA
:101180003348002104F038FB002010BD3148002115
:1011900004F032FB002010BD2F48002104F02CFB8E
:1011A000002010BD2D48002104F026FB002010BDBA
:1011B0002B48002104F020FB002010BD294800210D
:1011C00004F01AFB002010BD2748002104F014FB96
:1011D000002010BD2548002104F00EFB002010BDAA
:1011E0002348002104F008FB002010BD2148002105
:1011F00004F002FB002010BD1F48002104F0FCFA9F
:10120000002010BD1D48002104F0F6FA002010BD9A
:101210001B48002104F0F0FA002010BD19480021FD
:1012200004F0EAFA2046184904F00EFB002010BD35
:10123000012010BD18F3000028F3000044F3000063
:1012400058F300006CF3000084F300009CF30000EE
:10125000B4F30000CCF30000E8F3000008F4000051
:1012600020F4000034F400004CF4000060F40000AE
:1012700074F400008CF40000A8F40000B8F400003E
:10128000CCF40000E4F40000A00701002DE9F04FC9
:1012900099B005468B46904608939DF8902003929E
:1012A000239B13B10023239A1370002385F8A036E3
:1012B0000BAA0D9201220E920F938DF82C30B8F1EB
:1012C000000F01D10DF13408039A02F00403DBB2E0
:1012D0000593002B14BF13230B230693DBF8083070
:1012E0009A1CD8F808301344502B04DC069B229A31
:1012F0001344502B06DDAE48002104F07DFA4FF078
:10130000FF34EEE3039B13F00A0F0AD095F8643420
:10131000FF2B06D1A748002104F06EFA4FF0FF34EE
:10132000DFE3039A12F0020F00F09D802B796BB17E
:10133000A148002104F060FAD5F86C04016B4FF06D
:10134000FF33009304309D4A04F09EFADBF800005E
:10135000DBF80810D8F80020D8F8083004F08EFB2D
:1013600006460C90D8F80830191DD8F80420914290
:1013700040F3F3829248002104F03EFA4FF0FF342C
:10138000AFE3013494FBF3F203FB1242002AF8D1DD
:101390000023C8F80830D8F80430A34280F2F18264
:1013A0008748002104F028FA4FF0FF3499E385487C
:1013B000002104F021FA814F3046394604F054FAF6
:1013C0008148002104F018FAD8F800004FF0FF33EC
:1013D000009321463A4604F057FAD5F86C74D8F8D1
:1013E00000603B6BA34209DC94FBF3F203FB124267
:1013F00022B994FBF3F2002A05DCCCE27348002109
:1014000004F0FAF9C4E24FF0000907F1040A079565
:1014100014A83146524604F0BFFA3B68DD683846EE
:10142000314614AA0023A847002800F0B182504694
:1014300031463A6B04F02AFE3B6B1E4409F1010968
:1014400094FBF3F29145E3DB079DA4E260480021A1
:1014500004F0D2F9D8F800004FF0FF330093214692
:10146000564A04F011FADBF800301B780793039B0F
:1014700013F0010F00F0BC80079AAF2A00F0B8808B
:1014800095F86434FF2B00F0B3800023C5F82437AF
:10149000DBF80010DBF80840002C00F08B82D5F858
:1014A00020379C4240F37C824548002104F0A4F997
:1014B0004FF0FF3415E3D5F82437E018D5F820278E
:1014C000904240F37F823E48002104F095F94FF0AE
:1014D000FF3406E3226B93FBF2F102FB113139B3C7
:1014E000591CD5F82027914240F3788234480021D6
:1014F00004F082F990E2591CD5F82027914240F37C
:1015000078822F48002104F077F985E2D5F8243756
:10151000226B93FBF2F102FB11310029EBD1981AF7
:10152000D5F81C17084404F1460104F043FA07E01B
:10153000981AD5F81C17084404F1360104F03AFA59
:10154000D5F81C67D5F824A7236B9A4509DB9AFBCD
:10155000F3F203FB12A222B99AFBF3F2002A05DC94
:1015600050E21A48002104F047F955E2002704F13F
:101570000409099514A831464A4604F00DFA236877
:10158000DD682046314614AA0023A847002800F051
:10159000438248463146226B04F078FD236B1E449B
:1015A00001379AFBF3F29742E4DB099D2AE200BF80
:1015B000E8F4000010F5000024F50000A007010089
:1015C000E0F2000034F5000048F50000FCF20000F5
:1015D00058F50000B648002104F00EF9D5F86C3437
:1015E000196B4FF0FF33009310A8B24A04F04CF986
:1015F00040236B710123AB71E81DDBF80010DBF8B1
:10160000082004F043FDDBF80840023428190530B7
:10161000D8F80010D8F8082004F038FD6E1DD8F86E
:101620000830E21828463146D2B203F023FF0028E2
:1016300000F08781069A229B1A4428463146D2B28E
:1016400003F00CFD0746022802D9AB79412B06D0E6
:101650009948002104F0D0F84FF0FF3441E2E979D5
:101660002C7A85F8A016284603F038FA002800F0F6
:101670006B81032F40F26B8124B1AF2C1CBFFF2381
:1016800085F8643428462146FFF712FD002800F053
:101690006181239A02B114703E1FF6B2059B002BA4
:1016A00000F0D48014B1AF2C40F0D08095F86434B1
:1016B000FF2B00F0CB80079AAF2A1CBF0023C5F890
:1016C0002437AF2C11D1002E00F0C080D5F824377C
:1016D000F118D5F82027914240F3A18177480021E5
:1016E00004F08AF84FF0FF34FBE1072E40F2AE80A1
:1016F000002C40F0AB80A7F10C06F6B23246AB19D5
:1017000009330493002E00F0A481D5F82437F01893
:10171000D5F82017884240F390816848002104F0F2
:101720006BF84FF0FF34DCE16448002104F064F80A
:101730004FF0FF34D5E1226B93FBF2F102FB113144
:1017400039B3591CD5F82027914240F399815B4861
:10175000002104F051F8B1E1591CD5F8202791423D
:1017600040F399815548002104F046F8A6E1D5F8E8
:101770002437226B93FBF2F102FB11310029EBD1EC
:10178000981AD5F81C17084404F1460104F012F920
:1017900007E0981AD5F81C17084404F1360104F044
:1017A00009F9D5F81C77D5F824A7236B9A4509DBEE
:1017B0009AFBF3F203FB12A222B99AFBF3F2002A7E
:1017C00005DC71E13E48002104F016F876E14FF0A7
:1017D000000804F10409C346059514A839464A4691
:1017E00004F0DAF82368DD682046394614AA5B461F
:1017F000A847002800F0628148463946226B04F071
:1018000045FC236B1F4408F101089AFBF3F2904555
:10181000E3DB059D48E12B48002103F0EDFFD5F8FF
:101820006C34196B4FF0FF33009310A8214A04F079
:101830002BF8049810A9082209F004F830B12248C6
:10184000002103F0D9FF4FF0FF344AE13446229BD8
:10185000B34206DA1D48002103F0CEFF4FF0FF34FB
:101860003FE1089A002A00F03C81002E00F0398107
:10187000B146104605F10901324604F007FC039B0E
:1018800013F0080F00F02D81D5F86C64336B9C4287
:1018900009DB94FBF3F203FB124222B994FBF3F34E
:1018A000002B15DC10E10648002103F0A5FF08E13C
:1018B00068F50000A007010074F50000E0F20000E8
:1018C000FCF200008CF5000098F50000A8F500007F
:1018D000089F4FF000084FF0010B06F1040A039532
:1018E0003368DD68304614A93A465B46A8470028AD
:1018F00000F0E78014A801465246336B04F04CF820
:1019000050463946326B04F0C1FB384614A9326B9D
:1019100004F0BCFB336B1F4408F1010894FBF3F3A4
:101920009845DDDB039DCFE07048002103F064FFA4
:101930004FF0FF330093089849466D4A03F0A4FF27
:10194000CFE04FF0FF34CCE04FF0FF34C9E04FF070
:10195000FF34C6E04FF0FF34C3E0D8F800200C9805
:10196000D050D8F808400434C8F80840D5F86C3492
:101970001B6B94FBF3F203FB1242002A7FF401ADD0
:1019800006E5C8F808402B79002B3FF426AD0EE59C
:101990004FF0FF34A5E02B79002B3FF464AD55E503
:1019A000D5F81C07224604F071FBD5F824372344F0
:1019B000C5F82437D8F80010D8F80840002C7FF478
:1019C0007AAD86E0D5F81C071844224604F05EFB89
:1019D000D5F824372344C5F824377AE0D5F81C27F6
:1019E0008021D154D5F824370133C5F8243700209D
:1019F0008CE5D5F81C27D054D5F824370133C5F829
:101A0000243783E510A8211D226B04F03FFB2B79BE
:101A1000012B3FF6DFADEBE54FF0FF3461E0D5F889
:101A20001C07184405F10901324604F02FFBD5F8D4
:101A300024373344C5F8243708E7D5F81C07184481
:101A400005F1090104F022FBD5F824373344C5F829
:101A50002437D5F82437591CD5F8202791423FF771
:101A600063AED5F81C270021D154D5F824370133B3
:101A7000C5F82437D5F86C44002B3FF462AE5AE623
:101A8000D5F81C278021D154D5F824370133C5F867
:101A9000243700206BE6D5F81C27D054D5F824371E
:101AA0000133C5F8243762E610A8211D226B04F02B
:101AB000EDFA2B79012B3FF6AEAEBAE64FF0FF34CC
:101AC0000FE04FF0FF340CE02B79012B3FF62CAFE9
:101AD00007E0D5F86C44D5F82437002B3FF400AD6F
:101AE000F8E4204619B0BDE8F08F00BFCCF5000047
:101AF000A007010010B590B0044603791BB1174848
:101B0000002103F079FE05AB069302220792002222
:101B10005C2199540122089200228DF81520089B1F
:101B2000013308930CAA099210230A9300230C9303
:101B30000D930E930F930221D15401220B92009327
:101B4000019306220292204606A909AAFFF79EFBEE
:101B5000D0F1010038BF002010B010BDD8F5000052
:101B600030B589B004AD0595012406948DF81010A8
:101B700007940C9900910D9901919DF838100291EC
:101B800005A9FFF783FB09B030BD00BF2DE9F04F79
:101B9000D1B08346059114460379002B3BD03CA875
:101BA0008749059A09F028F93CA8002103F024FE92
:101BB000E16A4FF0FF33009304F114001029B8BF1D
:101BC0001021002203F060FE7E48002103F014FE85
:101BD000E26A94F83530402B03D0802B0FD063B9E4
:101BE00001E079480CE0082A05D0784B7848102AA3
:101BF00018BF184604E0774802E0774800E07748CD
:101C0000002103F0F9FD7648002103F0F5FD754849
:101C1000002103F0F1FD94F83530402B0AD0802BE1
:101C200006D03BB17048002103F0E6FD0024BDE280
:101C3000AA2100E01A2108A8099001220A92002393
:101C4000059DC5540B92102200920DF123050195BC
:101C50000293584609AA12ABFFF782FF82462B78FF
:101C6000AF2B03D1082807D0102805D05F480021EA
:101C700003F0C2FD002499E2271D38460021226BA3
:101C800008F074FE236B9A450ADB9AFBF3F203FB20
:101C900012A2069222B99AFBF3F3002B05DC38E27C
:101CA0005348002103F0A8FD31E24FF000090DF187
:101CB000580812AD2368DE6820463CA92A46012355
:101CC000B047002800F023823CA801463A46236B27
:101CD00003F062FE38462946226B04F0D7F9266BE2
:101CE00040463CA9324604F0D1F93544B04409F1EC
:101CF0000109236B9AFBF3F39945DBDB09E2BAF1A7
:101D0000200F40F31D823B48002103F075FD394848
:101D1000002103F071FD3CAB0C9320230D930023B5
:101D20000E933C933D933E933F9340934193429354
:101D300043934FEA4A050695202D40F31F822D4814
:101D4000194603F059FD0C9D236B06998B4209DC63
:101D500091FBF3F203FB121222B991FBF3F2002A7A
:101D600005DC10E22248002103F046FD09E24FF0B5
:101D7000000834AEC146CDF81CA0DDF818A02EA88E
:101D800031463A4603F008FE2368D3F80CC02046DB
:101D900029462EAA4B46E047002800F0F28138463B
:101DA0002946226B04F072F9236B1E441D4408F18E
:101DB00001089AFBF3F29045E1DBDDF81CA0E2E1BB
:101DC00020F6000044F60000F8F500000CF60000D4
:101DD00004F6000000F6000018F6000014F60000FB
:101DE00048F600008CF900004CF600005CF600009C
:101DF000FCF20000E0F200008548002103F0FCFC4A
:101E0000844E4FF0FF35009512A8514632462B46BE
:101E100003F03AFD8048002103F0EEFC009516A87F
:101E2000514632462B4603F02FFD7C48002103F03B
:101E3000E3FC00951AA8514632462B4603F024FDD8
:101E40007748002103F0D8FC00951EA85146324681
:101E50002B4603F019FD7348002103F0CDFC0095DB
:101E600034A8069932462B4603F00EFD6E48002139
:101E700003F0C2FC0C980095069932462B4603F0FD
:101E800003FDCDF800A00DF1230501950023029379
:101E90005846AF210CAA22ABFFF762FE2B780BB994
:101EA000824505D06148002103F0A6FC00247DE1B5
:101EB000236B9A4509DB9AFBF3F203FB12A222B9CA
:101EC0009AFBF3F3002B05DC65E15948002103F090
:101ED00093FC5EE14FF000090DF1980822AD2368F4
:101EE000DE6820462EA92A460123B047002800F0CC
:101EF00050812EA801463A46236B03F04DFD38462B
:101F00002946226B04F0C2F8266B40462EA93246C1
:101F100004F0BCF83544B04409F10109236B9AFB85
:101F2000F3F39945DBDB36E14248002103F064FC22
:101F3000384E4FF0FF35009522A8514632462B46C9
:101F400003F0A2FC3C48002103F056FC009526A8B3
:101F5000514632462B4603F097FC3848002103F0E7
:101F60004BFC00952AA8514632462B4603F08CFCC8
:101F700026A82AA9524608F065FC28B1304800215D
:101F800003F03AFC002411E12EAB0F9318231093B9
:101F9000002311932E932F933093319332933393E5
:101FA0000FA81EA90422FEF7D9FF0FA816A9042224
:101FB000FEF7D4FFE36A082B4EDD94F83530402B52
:101FC0000ED0802B3ED0002B46D10FA81FA9042293
:101FD000FEF7C4FF0FA817A90422FEF7BFFF3BE0DE
:101FE0000FA80DF17E010422FEF7B8FF0FA80DF136
:101FF0005E010422FEF7B2FF0FA821A90422FEF71A
:10200000ADFF0FA819A90422FEF7A8FF24E000BF26
:1020100078F60000A007010088F6000098F600009E
:10202000A8F60000B8F60000C8F60000D8F60000D8
:10203000FCF20000F4F6000004F7000014F70000C2
:1020400024F700000FA821A90422FEF787FF0FA89C
:1020500019A90422FEF782FF94F83530802B0CBFBB
:102060000BF58E630BF59963CBF86C34DBF86C04DD
:1020700003689C680F99119A0023A0470446002822
:1020800000F09480DBF86C04FEF786FF044600281D
:1020900000F08C809BF80430002B34D045480021A0
:1020A00003F0AAFBDBF86C54E96A4FF0FF330093AE
:1020B00005F114001029B8BF1021002203F0E4FB41
:1020C0003D48002103F098FBEA6A95F83530402B33
:1020D00003D0802B0FD063B901E038480CE0082A08
:1020E00005D0374B3748102A18BF184604E0364849
:1020F00002E0364800E03648002103F07DFB354819
:10210000354903F079FB059D8BF864544EE00024BB
:102110004CE01AA816A9524603F05AFC1EA85146D4
:1021200003F07AFC00233493359336933793389336
:1021300039933A933B93BAF1000F7FF4E0AD10E08E
:1021400034A81EA9524603F0A1FF4FEA4A03202BF0
:102150003FF7DDAD34A850441AA9524603F096FF6C
:10216000D9E53CAB0C9320230D9300233C933D9386
:102170003E933F934093419342934393069D0E9524
:10218000E1E5002412E09BF80430002B3FF479AE27
:1021900032E600240AE02AA81EA9524603F018FCE1
:1021A0009BF80430002B3FF4E3AEBDE6204651B06F
:1021B000BDE8F08F40F7000044F60000F8F500009D
:1021C0000CF6000004F6000000F6000018F600000F
:1021D00014F6000048F60000A00701002DE9F04FBA
:1021E000B5B08146049114461E46037943B120A838
:1021F0009C49049A08F000FE20A8002103F0FCFA94
:1022000099F86424FF2A05D19748002103F0F4FAD5
:10221000002005E299F80430002B40D093480021BB
:1022200003F0EAFAD9F86C04016B4FF0FF33009326
:1022300004308F4A03F028FB8E48002103F0DCFABB
:10224000E16A4FF0FF33009304F114001029B8BF86
:102250001021002203F018FB8748002103F0CCFA7C
:10226000E26A94F83530402B03D0802B0FD063B94D
:1022700001E082480CE0082A05D0814B8148102AF1
:1022800018BF184604E0804802E0804800E080481B
:10229000002103F0B1FA7F48754903F0ADFA24B18B
:1022A00094F83530FF2B40F074817B48002103F017
:1022B000A3FA0020B4E13DB1282D40F37C8177489A
:1022C000002103F099FA002599F8643404998B42AF
:1022D00014BF002301230593D9F868341BB994F87F
:1022E000353019430491059A002A47D126B196F852
:1022F0003530FF2B40F065816748002103F07CFA00
:1023000000208DE16648002103F076FAF16A4FF073
:10231000FF33009306F114001029B8BF10210022EA
:1023200003F0B2FA5448002103F066FAF26A96F814
:102330003530402B03D0802B0FD063B901E04F48DC
:102340000CE0082A05D04E4B4E48102A18BF1846FC
:1023500004E04D4802E04D4800E04D48002103F004
:102360004BFA4C48424903F047FAF26A0CA806F1CE
:102370001401102AB8BF102203F01CFB94F835306A
:10238000802B09D194F834206B1C282B40F31F813B
:102390004248002103F030FAC4238DF81830049B22
:1023A0008DF8193006A802210CAA2B4603F066FB13
:1023B000804607902E1D282E40F30F8137480021BC
:1023C00003F01AFA2E4699F804303BB13548002143
:1023D00003F012FA4046264903F046FA0599E9B996
:1023E000E16A38461029B8BF10210022134603F0D5
:1023F00045FB04460890331D282B40F3F280274804
:10240000002103F0F9F999F804303BB12648002186
:1024100003F0F2F92046164903F026FA182ECCBF35
:1024200020241824212EA8BF2824D9F86C542E6B00
:1024300094FBF6F306FB1343002B00F0D780013426
:1024400094FBF6F306FB1343002BF8D1CEE02B6B85
:1024500094FBF3F2002A2BDCD3E01448002103F0B4
:10246000CBF9CCE050F7000010F5000070F7000049
:10247000A007010080F7000044F60000F8F5000016
:102480000CF6000004F6000000F6000018F600004C
:1024900014F6000048F600004CF60000E0F20000E0
:1024A00090F70000A0F70000B4F70000FCF2000075
:1024B0004FF0000816AE0CAF05F1040AC34620A881
:1024C0003946524603F068FA2B68D3F80CC0284608
:1024D000314620AA5B46E047002800F09080504635
:1024E00031462A6B03F0D2FD2B6B1F441E4408F1CA
:1024F000010894FBF3F29045E1DB82E04A480021B9
:1025000003F07AF9494E4FF0FF3500950CA82146AB
:1025100032462B4603F0B8F94548002103F06CF928
:10252000009516A8214632462B4603F0ADF920AAA5
:10253000099229230A930023209321932293239322
:102540002493259326932793289329938DF8A830D5
:102550000499D15401230B933CB1E2180A9B9A428F
:1025600054DD3448002103F047F9059A12B1FF23E6
:1025700089F86434002300930193042202924846B0
:10258000C42109AAFFF7ECFAD0F1010038BF0020FE
:1025900046E000200C900D900E900F90109011903E
:1025A000129013901490159004F11407E56A0F2D02
:1025B0003FF781AE10250CA839462A4603F066FD88
:1025C00082E699F80430002B3FF4CFAE9AE634A9A6
:1025D0000D4405F8A02C1D46DEE607980CAB5851BB
:1025E000F1E608980CAA90511E460CE716A80021A7
:1025F000282208F0BBF9A6427FF729AF2DE700207B
:102600000EE099F80430002B91D077E7099801305B
:1026100016A9224603F03AFD0B9B23440B93A4E733
:1026200035B0BDE8F08F00BFC8F70000A00701007B
:10263000D8F70000E0F200002DE9F04188B005462F
:102640008846174603791BB11448002103F0D4F8DB
:1026500004AE059601240694002006F80080079435
:1026600000940190052302932846642105AA3B4665
:10267000FFF776FAA0420BD12B795BB10848002115
:1026800003F0BAF83878074903F0DEF8204602E094
:10269000002000E0012008B0BDE8F081E8F700006C
:1026A00000F80000A007010030B59DB004460D46BB
:1026B000037943B108A811492A4608F09DFB08A8F0
:1026C000002103F099F808A8059010230693002331
:1026D000089309930A930B93C55401220792009320
:1026E0000193062202922046542105AAFFF738FAE8
:1026F000D0F1010038BF00201DB030BD54F90000FA
:10270000F0B58BB004460D4603791BB12E4800216D
:1027100003F072F894F86434FF2B05D12B480021A4
:1027200003F06AF800204CE000220692079208921B
:10273000099210230093019209230293204651210C
:1027400006ABFFF70DFA102838D10AAB53F8100D7D
:1027500028609A889B79AA80AB71DDF81F000590EC
:10276000059F00238DF814302846072105AA012370
:1027700003F084F906462379012B07D91448002178
:1027800003F03AF83046134903F06EF8BE4205D024
:102790001148002103F030F8002012E023797BB1CA
:1027A0000E48002103F028F84FF0FF33009328462D
:1027B0000721084A03F068F8012002E0002000E049
:1027C00001200BB0F0BD00BF78F9000010F500004B
:1027D00090F90000A0070100A0F90000B0F9000086
:1027E0002DE9F04FAFB083460F46904603791BB1F9
:1027F0004C48002103F000F838460021702208F010
:10280000B5F819A80021542208F0B0F83C23009331
:102810000DF1130301930523029358466A21002208
:1028200019ABFFF79DF9041E5FDB9DF81330AF2B4A
:102830000FD1C4F1540300930022019204230293A8
:102840005846AF2119AB2344FFF78AF9002801DA73
:102850004DE000200444542C06DD3348002102F0F2
:10286000CBFF4FF0540A00E0A246304B83FB041329
:10287000A3EBE474E4B288F80040002C4AD00025B1
:102880002C46A946A600EA1C524536DD2648494694
:1028900002F0B2FF4B46BB510134E4B298F800306D
:1028A000A342EFD89BF804201AB31BB10120002BE0
:1028B00035D005E01E48002102F09EFF01202EE0E9
:1028C00000241C4E254605A83146224657F82430E0
:1028D00008F092FA05A8294602F08EFF0134E4B20E
:1028E00098F80030A342EED805E0002017E0002061
:1028F00015E0012013E0012011E02EAB43F8A49D68
:1029000019A90D442888A978ADF814009970059B81
:102910001546C0E79BF80430002BCBD101202FB027
:10292000BDE8F08FECF9000008FA00005655555547
:1029300024FA00003CFA00002DE9F0439DB0064661
:102940000F46914698469DF890500379BBB1402DB3
:1029500007D0802D07D02A4B2A4A002D08BF1346E6
:1029600002E0294B00E0294B009308A828493A4689
:10297000434608F041FA08A8002102F03DFFFF2D70
:1029800005D12448002102F037FF002035E006ACD5
:1029900008940523099300208DF81C0005971CA9B5
:1029A00031F85C2D8B78ADF818208DF81A300323A0
:1029B0000A938DF81B900A9A01320A92511C099BC6
:1029C000994212DD1448002102F016FF0023009303
:1029D0000193052202923046CA2108AAFFF7C0F8E7
:1029E000D0F1010038BF002007E048EA0505089B48
:1029F0009D540A9B01330A93E8E71DB0BDE8F083BC
:102A000018F600000CF60000F8F5000014F60000BF
:102A100058FA000098FA0000E0F2000070B59AB091
:102A200004460E46037943B106A81349324608F01E
:102A3000E3F906A8002102F0DFFE04AD06950320AD
:102A40000790002305961AAA32F8541D9278ADF823
:102A500010108DF812200890009301930522029225
:102A60002046DA2106AAFFF77BF8D0F1010038BF33
:102A700000201AB070BD00BFACFA0000F0B59FB0E6
:102A800007460D4602A90DF10702FFF7A9FE06460B
:102A9000B0B19DF8071099B102AB0139C9B203AAD0
:102AA00002EB8101002253F8044BAC4208BF012223
:102AB0008B42F8D122B138462946FFF7AFFF0646D0
:102AC00030461FB0F0BD00BFF0B59BB004460F46C6
:102AD000037943B106A815493A4608F08DF906A8CE
:102AE000002102F089FE04AE069603250795002317
:102AF00005971AA830F8541D8278ADF810108DF89B
:102B00001220089500930193029320465A2106AAA9
:102B1000FFF726F830B9FF2384F86434C4F86874EA
:102B2000012000E000201BB0F0BD00BFD0FA000083
:102B30002DE9F0419CB00646884614461F460379AD
:102B40004BB108A82F4942463B4608F055F908A862
:102B5000002102F051FE227863781B0243EA02331F
:102B6000E2781343A27843EA021306AD08950722E0
:102B7000099200240694ADF81C408DF81E4005F81B
:102B8000048001220A928DF819400A9A01320A92B1
:102B9000ADF81230911C099B99421CDD1A48214660
:102BA00002F02AFE05970A9BD91C099A91421ADD68
:102BB0001548002102F020FE002300930193052216
:102BC00002923046CD2108AAFEF7CAFFD0F10100DB
:102BD00038BF002013E0BDF81210089B99520A9BE1
:102BE00002330A93DEE70899C8181CAA32F85C4D34
:102BF0009278CC5282700A9B03330A93DCE71CB0B4
:102C0000BDE8F08124FC0000E0F200002DE9F04F67
:102C10009FB081468A4617461E46DDF8A08003799C
:102C200053B100960AA8304952463B4608F0E4F8F2
:102C30000AA8002102F0E0FD002E41DD08AC0025CD
:102C4000302EB4BFB3464FF0300B0A9407230B93DA
:102C50002560ADF824508DF8265004F805A0012316
:102C60000C9306971EAB33F8602D9B78A4F80120D7
:102C7000E3700C9B03330C93CDF81CB0D81C0B995C
:102C8000884221DD1948294602F0B6FDCDF800B092
:102C90000DF117030193052302934846BD210AAAAB
:102CA0004346FEF75DFF9DF817300BB9002801DCA5
:102CB000002016E0361A07448044002EC0DC01E0F4
:102CC00001200EE001200CE00A99C8181EAA32F873
:102CD0005CED927821F803E082700C9B03330C9337
:102CE000D4E71FB0BDE8F08F6CFC0000E0F20000FC
:102CF0002DE9F04FA1B08346059190461D46DDF8C1
:102D0000A890037953B100950CA84149059A434610
:102D100008F072F80CA8002102F06EFD002D4CDDC9
:102D20000CAF4FF03C0A342DB4BF2C463424099725
:102D3000CDF828A000260B9638463146524607F0BB
:102D400015FE059BBB550B9A531C0B93CDF81C80AD
:102D500004320A998A4234DD2E48314602F04CFD95
:102D6000264608940B9BD91C0A9A914235DD2948C6
:102D7000002102F041FD44B10B9BE1180A9A9142F7
:102D800038DD2448002102F037FD002300930DF1C7
:102D90001B0201920522029258463D2109AAFEF724
:102DA000DFFE9DF81B3003B908B100202CE02D1B7D
:102DB000A044B144002DB6DC01E0012024E0012054
:102DC00022E00999C81820AA32F8646D9278CE5290
:102DD00082700B9B03330B93C2E70999C81820AA92
:102DE00032F860ED927821F803E082700B9B033398
:102DF0000B93C0E7099818444946324603F046F958
:102E00000B9B23440B93C0E721B0BDE8F08F00BFBC
:102E1000A4FC0000E0F200002DE9F04186B0044679
:102E200001F018FE2646254B46F85C3B3046FEF77F
:102E300019F804F50D784046FEF714F804F20C4733
:102E40003846FDF713FD04F58E60FDF70FFD04F520
:102E50009960FEF707F804F2A160C4F81C07782215
:102E6000C4F820270025C4F82457294607F07EFD22
:102E7000C4F86C54FF2384F8643484F8A056C4F872
:102E80006854009501950295039504950595304683
:102E9000694608222B46FEF70FF84046694618227D
:102EA0002B46FEF709F83846694610222B46FDF7F7
:102EB000F9FA204606B0BDE8F08100BFD8F2000064
:102EC00008B5FF2280F864240022C0F8682402F0CC
:102ED0006DFB08BD2DE9F04F8FB0049005910023E4
:102EE00006930793089309930A930B930C930D93FE
:102EF0004FF0200BDA4698460393DFF80C9106AFAB
:102F00000EAE3C46C7EB0805281903F0A3FB04F8F6
:102F1000010BB442F8D163E0059B8DF83730BAF568
:102F2000006F0BD80DF1170407F11F050134E01BEA
:102F30004044217803F0A2FBAC42F7D108A800215D
:102F400002F05AFC08A807F0FDFFC0F11905002D9A
:102F500008DD002426464846314602F04DFC013487
:102F6000A542F8D14FF0FF33009306A807210022B5
:102F700002F08AFC9DF8373003F00303022B0AD0DD
:102F8000032B0FD0012B14D11B48002102F034FC7D
:102F90000123039313E01948002102F02DFC0123C3
:102FA00003930CE01648002102F026FC0123039352
:102FB00005E01448002102F01FFC012303930023C5
:102FC00006930793089309930A930B930C930D931D
:102FD0000BF1200ABAF5026F09D0D846D3468EE726
:102FE000049808A907F02EFF0028E8D194E7039879
:102FF0000FB0BDE8F08F00BFC0FE0000D0FE0000A3
:10300000E0FE0000F4FE0000B4F6000010B5044637
:103010000C20002103F07EFD0A20002103F07AFD40
:103020000D20002103F076FD012C02D0022C09D0E6
:1030300010BD0C20012103F06DFD0D20012103F0D6
:1030400069FD10BD0A20012103F064FD0D2001215E
:1030500003F060FD10BD00BF2DE9F843894690469E
:103060001F460378202B05D14378202B18BF461C20
:103070000DD106E01C48002102F0BEFB0020BDE897
:10308000F883841C2646013430782028FAD0304654
:1030900007F058FF044600280EDD331813F8013CF2
:1030A000202B09D13518002205F8012D013C03D051
:1030B00015F8013C202BF7D0A74206DA0B48002177
:1030C00002F09AFB0020BDE8F883A04506DD084821
:1030D000002102F091FB0020BDE8F883C9F80060F0
:1030E0000120BDE8F88300BF10FF000024FF0000AE
:1030F0003CFF000008B503F0C9F906F025FC0749BC
:1031000006F076FC064906F073FC064906F070FCF2
:10311000054906F021FD06F0BBFD08BD0000204179
:103120009A99993F66667E4100F07F4510B5172059
:10313000FFF7E0FF0446882803D90E20002103F0A2
:10314000E9FC872C03D80E20012103F0E3FCA4F155
:10315000820009288CBF0020012010BD2DE9F84312
:1031600002F0FEFB06460F4647F2305400254FF0B2
:10317000C80904F0A7FA00F0DF08B8F14E0F08D034
:1031800002F0EEFB801B61EB07018D4208BF844219
:1031900006D20948002102F02FFB0020BDE8F88389
:1031A000B8F1590F05D0FFF7C1FF484603F028FDDD
:1031B000DFE70120BDE8F88354FF000038B50B4875
:1031C000002102F019FBFFF7C9FF68B10024254672
:1031D0002046294603F052FA0134B4F5006FF7D1C6
:1031E0000348002102F008FB38BD00BF60FF00006B
:1031F000C8FF000038B5041E0BDDFFF797FF642CF5
:10320000B4BF25466425284603F0FAFC641B002C55
:10321000F3DC38BD70B598B0054630B10120FFF73A
:10322000F5FE3048002102F0E7FA00222E4B1A701A
:103230002E4C204602F020F80DF10F03009320469B
:1032400003A90DF10D020DF10E0302F01BF9002888
:103250003AD09DF80C209DF80D309DF80E1000918D
:1032600004A8234907F0C8FD04A8002102F0C4FA0D
:103270009DF80F1001F0010401F00206F6B201F012
:103280000401C9B21B4B1C4A00290CBF1146194648
:10329000009104A81949002C18BF1A461C46164B69
:1032A000002E18BF234607F0A7FD04A8002102F056
:1032B000A3FA0E4802F04CF930B10C4802F01CF9A8
:1032C00010B10122084B1A704DB14FF4FA60FFF7AC
:1032D00091FF0020FFF79AFE6420FFF78BFF18B0E4
:1032E00070BD00BFF0FF0000C499FF1F9C92FF1F3C
:1032F00018000100E8FF0000ECFF0000440001009E
:1033000010B50C46FFF782FE2046FFF773FF002042
:10331000FFF77CFE10BD00BF08B50848FDF7C4FEEE
:10332000012809D10648002102F066FA0120C821CF
:10333000FFF7E6FF012008BD002008BD9C92FF1F9B
:103340007C00010010B504460F480021FFF7BCFBCC
:103350000346B8B10C4800212246FFF76DF9034639
:1033600080B12378102B06D107480021074AFEF7C9
:103370000DFC034606E0044A104600215C32FEF7CD
:1033800005FC0346184610BD9C92FF1FB890FF1F16
:1033900038B505460C4600220B4603F8012B4A704F
:1033A000013303F8012B1A700E4829462246E31C0C
:1033B00002F028F9034610B90122A2700FE0E2786A
:1033C000032A0CD1601CFFF7BDFF034638B1054846
:1033D0002946FFF795F9034608B1072222701846DF
:1033E00038BD00BF9C92FF1F2DE9F04781468846FB
:1033F0002048002102F000FA02F0B2FA06460F4619
:1034000047F23054002548464146FFF7C1FF824647
:1034100010B398F80030FBB114E01748002102F017
:10342000EBF94FF0000A21E004F04CF91B2806D11B
:103430001248002102F0E0F94FF0000A16E0FFF711
:1034400075FEE0E7D9E900230D49C1E900230D48E5
:10345000002102F0D1F909E002F082FA801B61EB51
:1034600007018D4208BF8442DED2D6E75046BDE850
:10347000F08700BFC40001001C01010054FF0000E0
:10348000B090FF1F3801010000B583B00DF10700B7
:10349000FFF758FF034688B19DF80720102A0DD08A
:1034A00008480021084A0B46FEF798FE034628B15B
:1034B00004480021044AFEF769FB0346184603B09E
:1034C0005DF804FB9C92FF1FB890FF1F2DE9F04FA1
:1034D000B1B0002306930793089309930A930B93C3
:1034E0000C930D9306A805A9FFF77EFF034600285D
:1034F00000F0C080DDE90601CDE9000100220E9256
:103500000F921092119212921392149215921346E6
:1035100093460EAD16AE2C465D1B281903F09AF8A3
:1035200004F8010BB442F8D199E0DDE90E23DDE99E
:103530000001994208BF904248D100231693179387
:10354000189319931A931B931C931D930BF1010766
:103550007F010DF1580AD1466FF01F04CAEB040435
:10356000CDF80CB0A34607F12008B8F5006F7CD861
:103570001EAE4C46CAEB0705601903F06BF804F861
:10358000010BB442F8D1B7F5006F0BD80DF1570419
:103590000DF177055F440134E019217803F06EF8EE
:1035A000AC42F8D1DDE9162352EA030101D04746C7
:1035B000D9E7DDF80CB00BF1FF3B16A82F4910AA94
:1035C00007F01AFC16A8002102F016F90BF1010B06
:1035D00000230E930F93109311931293139314934C
:1035E00015934FEA4B1303F12002B2F5006F90D907
:1035F0002FE02348002102F0FFF800233AE016A84C
:10360000FFF7A0FE0346002834D09DF85820002A7A
:1036100030D01C481C49FFF731FA044630B919482C
:1036200000211A4AFEF7B2FA034618B3154A1046AB
:1036300000215C320B46FEF7D1FD0346D0B1114AA2
:10364000104600215C32FEF7A1FA031E18BF234684
:1036500010E09DF8173013F0010FD0D1C9E7DDE974
:10366000002313437FF461AFB0E700200021CDE9D0
:10367000160188E7184631B0BDE8F08F68010100F7
:103680008C0101009C92FF1F1F40AA00B890FF1FF1
:1036900000B58BB01748002102F0AEF8FFF75EFDD1
:1036A000034618B3002302930393049305930693F0
:1036B00007930893099302A801A9FFF795FE034613
:1036C000A0B19DF8073013F0010F05D10A48002181
:1036D00002F092F8002309E00DF10300FFF732FE3B
:1036E000034618B10548FEF705FA034618460BB025
:1036F0005DF804FBB00101008C0101009C92FF1FEA
:1037000038B50B4D2846FFF787FB0A4C28460A4977
:10371000224606F0B3FD094D2846FDF7A3FB2846D7
:103720000749224606F0AAFD02F05AFF38BD00BF45
:103730009C92FF1F6087FF1F1D4A0000B890FF1F6B
:103740008908000010B582B00024224B1C701420A0
:10375000012103F011FA1420214603F0DBF91520B2
:10376000012103F009FA1520214603F0D3F90E20B8
:10377000012103F001FA0E20214603F0CBF90A20C3
:10378000012103F0F9F90C20012103F0F5F90D20D6
:10379000012103F0F1F902204FF47A71FFF7B0FD37
:1037A0000C2002F047FE022002F018FE00940223D3
:1037B0000193094803210122042301F05FF9204607
:1037C000FFF728FD0548064918221023FDF774FB72
:1037D00002B010BDD099FF1F9C92FF1FB890FF1F31
:1037E000AC0901002DE9F043ADF5077D8646894619
:1037F0009046002305930693079308930993006866
:103800000490BEF804109EF80620ADF814108DF850
:1038100016209DF810109EF808204A408DF81020C0
:10382000012404AE0AE0651C0EEB0301325D0F7A41
:10383000574037550F2DD4BF2C4600240133172B8A
:10384000F1D110A8FDF70EFB10A84649182200235D
:10385000FDF732FB044600287BD01C9B182B0BDCA9
:10386000182292FBF3F203FB02F2182A04D192FB16
:10387000F3F2002A05DC58E03B48002101F0BCFFD0
:1038800051E000260AAC04AD6846294611AA02F0B0
:1038900083F8109BDF6810A821466A460023B847CA
:1038A000002840D011A821461C9A02F0EFFB1C9B77
:1038B0001D441C440136182292FBF3F29642E3DBCE
:1038C00033E01C9B102B0BDC102292FBF3F203FB6A
:1038D00002F2102A04D192FBF3F2002A05DC2FE059
:1038E0002148002101F088FF28E0002504AC68464B
:1038F000214611AA02F050F8109BDE6810A841463C
:103900006A460023B047C8B111A841461C9A02F08C
:10391000BDFB1C9B1C4498440135102292FBF3F222
:103920009542E4DB0CE0002413E010A80F491822B4
:103930000023FDF7C1FA044658B1C2E7002408E0AD
:10394000D9F800309C6848460AA918221023A047DD
:10395000044610A8FCF798FF20460DF5077DBDE84A
:10396000F08300BF90FE0000FCF20000A8FE000003
:1039700010B5ADF5027D04460CA8FDF773FA20469C
:103980000CA904AAFFF72EFF0446002833D01D48D7
:103990000021FFF799F8044668B31A4800210DF199
:1039A0000F02FEF749FE044628B39DF80F30102B96
:1039B00020D114481449FFF787F80446D8B11148BC
:1039C00000210CAAFEF7E2F80446A0B108AB009370
:1039D0000C4800210A461023FFF718F9044650B19D
:1039E00008A804A9102206F02DFFD0F1010438BF69
:1039F000002400E000240CA8FCF746FF20460DF54B
:103A0000027D10BD9C92FF1F1F40AA002DE9F04FC0
:103A10008FB0CDE904010392002306930793089326
:103A200009930A930B930C930D9304460D4654EAA5
:103A3000050100F0C3804FF020091F460DF1180A60
:103A40000DF13808D3465E46CAEB0707B81902F0F5
:103A500001FE06F8010B4645F8D1A9E09D4208BFDA
:103A6000944200F0BD8009F12003B3F5026F00F02D
:103A7000A5804F469946E6E75E48002101F0BCFE6E
:103A800001204FF47A71FFF73BFCB0E0032B0DD11E
:103A9000039A5378102B1CD05748002101F0ACFE3C
:103AA00001204FF47A71FFF72BFCA0E006A8FFF786
:103AB0005FFF70B9FFF730FC002840F098804E4857
:103AC000002101F099FE01204FF47A71FFF718FCF4
:103AD0008DE09DF8373003F00303022B08D0032B51
:103AE0000BD0012B0ED14548002101F085FE0DE0E1
:103AF0004348002101F080FE08E04248002101F027
:103B00007BFE03E04048002101F076FE08A800217A
:103B100001F072FE0399CB78012B06D0032B09D15B
:103B20003A483B4901F068FE08E03A48384901F05C
:103B300063FE03E03848364901F05EFE0220FFF7DD
:103B400065FA9DF8373013F0010F0AD014200121D7
:103B500002F0E0FF6420FFF74DFB1420002102F08B
:103B6000D9FF9DF8373003F00303032B03D14FF443
:103B7000FA70FFF73FFB9DF8373013F0020F0AD0C1
:103B80001520012102F0C6FF6420FFF733FB15204A
:103B9000002102F0BFFF4FF47A70FFF72BFB0020EB
:103BA000FFF734FADDE904231C49C1E900231EE0D4
:103BB000DDE9062352EA03017FF450AF18480021E3
:103BC00001F01AFE4FF0FF33009304A80721104ABA
:103BD00001F05AFE01204FF47A71FFF791FB06E0E5
:103BE000039AD37813F0010F7FF450AF44E70FB07E
:103BF000BDE8F08F8C01010070020100900201000D
:103C0000A4020100B8020100D0020100E802010094
:103C1000A00701000003010018030100B090FF1F7E
:103C20002803010010B5FEB0044608A8FDF71AF9F4
:103C3000204608A904AAFFF7D5FD0446002850D065
:103C40002B482C49FEF71AFF0446002849D09DF85E
:103C500055300093264827490F220123FEF76CFEBA
:103C6000044600283DD022482249FEF72DFF044695
:103C7000002836D01E4A1046002102F50D72FDF7CD
:103C800085FF044668B31A48002108AA0B46FEF7D0
:103C9000A5FA044628B31648002108AAFDF776FFC6
:103CA0000446F0B11248F021FEF7FEFC0446C0B114
:103CB00000218DF80C108DF80D108DF80E108DF878
:103CC0000F100B4803AA1023FEF732FF044640B141
:103CD00004AB0093064800210A461023FFF708F8BA
:103CE000044608A8FCF7D0FD20467EB010BD00BFFA
:103CF0009C92FF1F1F40AA002DE9F04FA9B0044677
:103D00000023089309930A930B930C930D930E933E
:103D10000F9308A807A9FFF767FB002800F06B8145
:103D20000AA8172101F078FE0AA8214607F0ACF88E
:103D300000231093119312931393149315931693D6
:103D40001793DDE9084554EA050100F02981202791
:103D50009B460DF1400818AEC146CA46C8EB0B0B96
:103D60000BEB0A0002F076FC0AF8010BB245F7D122
:103D700010E19D4208BF944200F0198107F1200331
:103D8000B3F5026F00F00C81BB461F46E5E79B4888
:103D9000002101F031FD2EE1FFF776FB002800F055
:103DA0002A819DF81F30032B08D008A8FFF73AFF9F
:103DB00020B99348002101F01FFD1CE101238DF87B
:103DC0003F300023189319931A931B931C931D9350
:103DD0001E931F934FF0400A202203929946984663
:103DE0000DF1600B20AE4F4618ACCBEB090528193E
:103DF00002F030FC04F8010BB442F8D1E5E0039B7B
:103E0000B3F5006F00F287800DF11F0408AE0DF1CD
:103E10003F050134A01B4844217802F02FFCAC423E
:103E2000F7D178E00AA81AA907F00CF800285CDAA4
:103E30000023209321932293239324932593269365
:103E400027930DF1800B0DF19F050DF17F04CBF54C
:103E5000FC660136301902F0FDFB04F8010FAC429C
:103E6000F8D1DDE9202352EA030140F0B580B8F132
:103E70003E0F00F3B6804FF4FC6A3F2204926FF0CD
:103E80001F03CBEB03030593049901390491BAF5A1
:103E9000006F0BD80BF120075C46059E5644A01915
:103EA00002F0D8FB04F8010BBC42F8D10AF1200360
:103EB000B3F5006F0AD80DF17F04CBEB0A0601348D
:103EC000A019217802F0DAFBA542F8D1AAF1200A64
:103ED000049A4245D8D184E00134A01B484421789B
:103EE00002F0CCFBAC42F7D115E008F10108CBF8A9
:103EF000007019971A971B971C971D971E971F976D
:103F00004FEA48190AF12003B8F1400F58D0CDF814
:103F10000CA09A4668E73B48002101F06DFC0AA816
:103F2000002101F069FC0AA807F00CF8C0F119059E
:103F3000002D09DD0024344F26463846314601F075
:103F40005BFC0134A542F8D14FF0FF33009308A881
:103F50000721002201F098FC9DF83F3003F0030395
:103F6000022B08D0032B0BD0012B0ED127480021A8
:103F700001F042FC3FE02648002101F03DFC3AE020
:103F80002448002101F038FC35E02348002101F0ED
:103F900033FC30E0DDE9102352EA03017FF4E9AE9F
:103FA0009DF81F3013F0010F3FF4F1AEF4E61B480B
:103FB000002101F021FC12A8194901F01DFC1AE0B2
:103FC0001848002101F018FC15E0DDE9182352EA39
:103FD00003017FF427AF12E71248002101F00CFC27
:103FE00009E0039AB2F5006F95D80DF11F0408AEF1
:103FF0000DF13F0570E729B0BDE8F08F8C0101009D
:104000005003010074030100B4F60000C0FE00007C
:10401000D0FE0000E0FE0000F4FE0000940301006A
:10402000A0070100C00301002DE9F04FB1B0044624
:10403000002106910791089109910A910B910C9129
:104040000D919B4B1A689B48815419609A4801F066
:10405000D3FB94B9974B1B7843B19848002101F0EA
:10406000CBFB4FF4FA70FFF7C5F8D3E39448002177
:1040700001F0C2FB00228F4B1A7001F071FC914AD3
:104080000023121843EB01038F49C1E9002389483B
:104090008E49052206F086FFB8B98D4805A9012290
:1040A0001346FEF7D9FF002800F0B483059B19786A
:1040B0003039C9B2032904D98648002101F09CFB9C
:1040C000A8E3854800F008FDA4E37A48834906F098
:1040D000B9FE58B9FFF79EF8814B1B78002B00F012
:1040E00026838048002101F087FB93E37C4B1B78FB
:1040F000002B00F01C836F487B4906F0A3FE10B92B
:10410000FFF75CF886E36B48784906F09BFE0028D1
:1041100063D17748002101F06FFB002716971797AE
:10412000189719971A971B971C971D973D46714E24
:10413000DFF8F88116AB0DF178091C46ED1A281945
:1041400002F088FA04F8010B4C45F8D138E3002F4F
:1041500040F060836848002101F04EFB5AE318A844
:10416000002101F049FB18A806F0ECFEC0F119058A
:10417000002D08DD0024A1463046494601F03CFBF5
:104180000134A542F8D14FF0FF33009316A8072160
:10419000002201F079FB9DF8773003F00303022B36
:1041A00008D0032B0BD0012B0ED15448002101F075
:1041B00023FB0DE04046002101F01EFB08E05048C3
:1041C000002101F019FB03E04E48002101F014FB2F
:1041D00001377D01402FADD11CE336484A4906F036
:1041E00031FE78B9FFF772F920B14848002101F09B
:1041F00003FB03E04648002101F0FEFA3648FEF7D3
:104200005FFE07E32B48434906F01CFE78B9FFF731
:104210003FFA20B14048002101F0EEFA03E03F48A8
:10422000002101F0E9FA2C48FEF74AFEF2E22148AB
:104230003B49032206F0B6FE78B93A4805A90322A5
:104240001623FEF709FF002800F0E4820598FFF727
:1042500053FD2148FEF734FEDCE2164832490322C2
:1042600006F0A0FE002840F0CD802E4805A90322CC
:104270001623FEF7F1FE002800F0CC82059902918A
:1042800000230E930F93109311931293139314938F
:1042900015931A461F469B460EAD16AE2C46551B6F
:1042A000281902F0D7F904F8010BB442F8D18EE2D4
:1042B0009892FF1FD099FF1FA0070100DC030100A7
:1042C000F0030100C02709009092FF1F20040100A5
:1042D000D599FF1F280401009C92FF1F4004010094
:1042E000C499FF1F480401006C040100740401001C
:1042F0007C040100B4F6000098040100C0FE000038
:10430000E0FE0000F4FE0000A4040100AC04010083
:10431000C0040100D4040100E0040100F80401001D
:104320000C050100D399FF1F10050100D0FE00000D
:10433000029810A906F086FD00284AD100231693A2
:104340001793189319931A931B931C931D930BF1B6
:1043500001077F010DF1580AD1466FF01F04CAEB27
:104360000404CDF80CB0A34607F12008B8F5006F9F
:1043700000F234821EAE4C46CAEB0705281902F043
:1043800069F904F8010BB442F8D1B7F5006F0BD806
:104390000DF157040DF177055F4401343819217888
:1043A00002F06CF9AC42F8D1DDE9162352EA0301C0
:1043B00001D04746D8E7DDF80CB00BF1FF3B16A85B
:1043C000A94910AA06F018FD16A8002101F014FA58
:1043D00001270BF1010B00230E930F931093119300
:1043E00012931393149315934FEA4B1202F1200387
:1043F000B3F5006F7FF650AFEEE19C48002101F06D
:10440000FBF907E29A489B49062206F0CBFD0028FB
:1044100040F09280984805A903221623FEF71CFE5F
:10442000002800F0F781059A039200231693179352
:10443000189319931A931B931C931D934FF0200B01
:10444000DA4698460293DFF84C9216AF1EAE3C4611
:10445000C7EB0805281902F0FDF804F8010BB44277
:10446000F8D1C3E103238DF87730BAF5006F0BD88C
:104470000DF1570407F11F050134E01B404421787A
:1044800002F0FCF8AC42F7D118A8002101F0B4F911
:1044900018A806F057FDC0F11905002D08DD00240D
:1044A00026464846314601F0A7F90134A542F8D125
:1044B0004FF0FF33009316A80721002201F0E4F922
:1044C0009DF8773003F00303022B0AD0032B0FD0A3
:1044D000012B14D16948002101F08EF901230293C8
:1044E00013E06748002101F087F9012102910CE0F7
:1044F0006448002101F080F90122029205E062483F
:10450000002101F079F901230293002316931793F8
:10451000189319931A931B931C931D930BF1200A64
:10452000BAF5026F00F05F81D846D3468DE74F4859
:10453000002101F061F96DE14D485449052206F072
:1045400031FD002840F0A880514805A90322162318
:10455000FEF782FD002800F05D810599029100239D
:1045600016931793189319931A931B931C931D93E7
:104570004FF0200BDA469846994616AF1EAE3C46E1
:10458000C7EB0805281902F065F804F8010BB442DE
:10459000F8D137E101238DF87730BAF5006F0BD8E9
:1045A0000DF1570407F11F050134E01B4044217849
:1045B00002F064F8AC42F7D118A8002101F01CF910
:1045C00018A806F0BFFCC0F11905002D08DD002475
:1045D00026463048314601F00FF90134A542F8D1A2
:1045E0004FF0FF33009316A80721002201F04CF989
:1045F0009DF8773003F00303022B0AD0032B0FD072
:10460000012B14D11D48002101F0F6F84FF00109EB
:1046100013E01B48002101F0EFF84FF001090CE016
:104620001848002101F0E8F84FF0010905E01648AC
:10463000002101F0E1F84FF00109002316931793D0
:10464000189319931A931B931C931D930BF1200A33
:10465000BAF5026F00F0D280D846D3468DE7034802
:10466000002101F0C9F8D5E068010100140501003E
:10467000D099FF1F30050100D699FF1FC0FE000032
:10468000D0FE0000E0FE0000F4FE0000380501004E
:10469000D599FF1FB4F6000060486149052206F075
:1046A00081FCA0B95F4805A903221623FEF7D4FCBC
:1046B000002800F0AF8005980221FEF70BFC0028CF
:1046C00040F0A8805848002101F096F8A2E0534B32
:1046D0001B781BB15548002101F08EF85448002189
:1046E00001F08AF85348002101F086F85248002171
:1046F00001F082F85148002101F07EF85048002175
:1047000001F07AF84F48002101F076F84E48002178
:1047100001F072F84D48002101F06EF84C4800217C
:1047200001F06AF84B48002101F066F807E04A48BA
:10473000002101F061F83E48002101F05DF8474892
:10474000002101F059F84648002101F055F8454C88
:104750002046002101F050F84348002101F04CF8B8
:1047600016A842494022162306F046FB16A800214F
:1047700001F042F83E48002101F03EF83D4800219A
:1047800001F03AF81720FEF7B5FC03463A4AA2FBBF
:104790000012D20802EB820516A83849A3EB4503A4
:1047A00006F02AFB16A8002101F026F83448002163
:1047B00001F022F801F0D4F8224601F09DF829E03A
:1047C000DDE9162352EA03017FF4C9ACBFE4029A83
:1047D000002A7FF4ADADFCE5E7B90EE60022002328
:1047E000CDE91623D1E5029BA3B9A0E6039818A949
:1047F00006F028FB00287FF488AE33E6B9F1000FFD
:1048000008D12CE7029818A906F01CFB00287FF4B9
:1048100014AFBFE631B0BDE8F08F00BFD099FF1FE5
:1048200040050100D599FF1F14050100480501004E
:10483000600501006C050100B0050100EC050100F8
:104840002C06010070060100A4060100D806010034
:104850000C0701005C070100A4070100EC07010040
:1048600038080100A00701008C080100D0080100F1
:104870001809010040090100CDCCCCCC4809010049
:1048800068090100F0B583B001F06AF80024214EF8
:10489000214D224F36E002F015FFC4B20023ADF8DF
:1048A00004308DF804400D2C01D00A2C07D10120D2
:1048B000FFF7BAFB3046002100F09EFF21E0082CF4
:1048C00008D12B68EBB1013B2B6001A8002100F05F
:1048D00093FF16E0A4F12003DBB25E2B11D801A8F0
:1048E000002100F089FF2B68B3F5FA7F05D30C484F
:1048F000002100F081FF00232B602B685A1C2A60E6
:10490000FC54012402F02AFF0028C4D1204603B041
:10491000F0BD00BF840901009892FF1FD099FF1FCE
:104920008C090100F0B58DB0FFF7ACFF0746FEF72C
:10493000FDFB064601F014F804460D46324B1B7889
:104940007BB13FB110F57A7441F100052F4BC3E9FB
:10495000004556E02D4B1B68C31AB3F57A7F04DA85
:104960004FE00120FEF756FC43E00023049305933B
:1049700006930793089309930A930B9304A803A93A
:10498000FEF706FD98B9FEF7C7FC58B99DF80E3042
:104990001BB10120FEF73EFC04E001204FF47A71C8
:1049A000FEF7AEFC1A48002100F026FF21E09DF83A
:1049B0000C3063B9002200231649C1E90023002E00
:1049C0000CBF012002201421FEF79AFC11E0DDE962
:1049D0000401104BD3E90023994208BF904208D04C
:1049E000CDE9004503AAFFF711F80948002100F0BE
:1049F00003FF0948FEF764FA00F0B2FF034BC3E976
:104A000000010DB0F0BD00BFC499FF1FC899FF1F82
:104A1000A8090100B090FF1F9C92FF1F10B504462B
:104A20000B4B036000F59960FBF72EFF04F58E60D9
:104A3000FBF71EFD04F20C40FBF71AFD04F50D70A8
:104A4000FBF722FF04F15C00FBF71EFF204610BDC0
:104A5000D8F20000084A0260002280F8552080F851
:104A6000562080F8572080F8582080F8592080F888
:104A70005A2080F85B207047E010010070B50446B2
:104A80009DF8140084F8551084F8562084F85730A7
:104A90009DF8103084F8583084F85900012584F8C6
:104AA0005A50002684F85B60294602F065F894F8B5
:104AB0005800294602F060F894F85500294602F0A3
:104AC0005BF894F85700294602F056F894F856001F
:104AD000314602F051F870BD0171704710B58EB0CB
:104AE00011F03F0400F0C88001A86549224606F095
:104AF00083F901A8002100F07FFE013C2D2C00F27B
:104B0000B580DFE804F0171D23292F353BB341475B
:104B10004DB35359B35FB3656B71B3B3B3B3B3B3B1
:104B2000B3B3B3B3B3B3B3B377B37D8389B38F9563
:104B30009BA1A7AD5348002100F05EFE00209CE041
:104B40005148002100F058FE002096E04F48002117
:104B500000F052FE002090E04D48002100F04CFE95
:104B600000208AE04B48002100F046FE002084E04F
:104B70004948002100F040FE00207EE04748002127
:104B800000F03AFE002078E04548002100F034FEB5
:104B9000002072E04348002100F02EFE00206CE06F
:104BA0004148002100F028FE002066E03F48002137
:104BB00000F022FE002060E03D48002100F01CFED5
:104BC00000205AE03B48002100F016FE002054E08F
:104BD0003948002100F010FE00204EE03748002147
:104BE00000F00AFE002048E03548002100F004FEF5
:104BF000002042E03348002100F0FEFD00203CE0B0
:104C00003148002100F0F8FD002036E02F48002157
:104C100000F0F2FD002030E02D48002100F0ECFD16
:104C200000202AE02B48002100F0E6FD002024E0CF
:104C30002948002100F0E0FD00201EE02748002167
:104C400000F0DAFD002018E02548002100F0D4FD36
:104C5000002012E02348002100F0CEFD00200CE0EF
:104C60002148002100F0C8FD002006E01F48002177
:104C700000F0C2FD002000E001200EB010BD00BF1A
:104C8000CC090100E4090100F0090100FC09010060
:104C90000C0A0100340A0100440A0100600A010004
:104CA000840A01009C0A0100C00A0100D40A010024
:104CB000E40A0100000B0100140B01002C0B0100A1
:104CC000400B0100580B0100700B0100880B010024
:104CD000A00B0100BC0B0100D80B0100F40B01007C
:104CE0000C0C0100300C0100400C0100500C0100C4
:104CF0002DE9F0470446884690F85B3063B1214BBC
:104D00004FF00042DA6259631A46D36A002BFCDA8C
:104D10001C4B9B6BBDE8F08790F85500012101F01A
:104D2000F9FE4FF4C873013B7FF4FDAF082701265D
:104D30004FF0000A4FF4C875B14694F8550051463B
:104D400001F0E8FE2B46013B7FF4FDAF16EA080FA9
:104D500094F857000CBF0021012101F0DBFE2B4627
:104D6000013B7FF4FDAF94F85500494601F0D2FEB7
:104D70002B46013B7FF4FDAF7600013FDDD1BDE85E
:104D8000F08700BF00C002402DE9F047044690F8CC
:104D90005B3073B1204B4FF00042DA6200225A635D
:104DA0001A46D36A002BFCDA1B4B986BC0B2BDE8E5
:104DB000F08790F85500012101F0ACFE4FF4C87364
:104DC000013B7FF4FDAF082501264FF00008C246E5
:104DD0004FF4C877B14694F8560001F0BFFE08B111
:104DE00048EA060894F85500514601F093FE3B4608
:104DF000013B7FF4FDAF94F85500494601F08AFE6F
:104E00003B46013B7FF4FDAF7600013DE3D15FFA05
:104E100088F0BDE8F08700BF00C0024038B5044606
:104E200090F85A30002B30D090F85800002101F053
:104E300071FE022001F0E4FE2379022B03D9204801
:104E4000002100F0D9FC20460221FFF751FF204647
:104E5000FFF79AFF05462379022B07D9194800214D
:104E600000F0CAFC2846184900F0EEFC94F85800FF
:104E7000012101F04FFE4FF4C873013B7FF4FDAFF9
:104E8000012D14BF0020012038BD104D28462421DB
:104E9000012201F0E7F8284600F08EFEC5B2237922
:104EA000022B07D90748002100F0A6FC2846064936
:104EB00000F0CAFC012D14BF0020012038BD00BF46
:104EC000680C0100880C0100A00701007C9CFF1FFA
:104ED000F8B5064665240A270AE0013CA4B224B9C5
:104EE0000748002100F088FC08E0384601F088FE01
:104EF0003046FFF793FF05460028EED02846F8BD60
:104F00009C0C01002DE9F047054689461646FFF73F
:104F1000DFFF804600285FD095F85AA0BAF1000F55
:104F20002FD095F85800002101F0F4FD022001F087
:104F300067FE2B79022B03D92948002100F05CFC85
:104F400028460321FFF7D4FE7EB109F1FF34771E16
:104F500059FA87F70126304601F052FE2846FFF73E
:104F600013FF04F8010FBC42F5D195F85800012158
:104F700001F0D0FD4FF4C873013B7FF4FDAFD04684
:104F80002AE0022001F03CFE164C721C204624212F
:104F9000D2B201F067F8204600F00EFE04462B79ED
:104FA000022B07D91048002100F026FCE0B20F497F
:104FB00000F04AFC86B109F1FF34771E59FA87F7F1
:104FC0000126084D304601F01BFE284600F0F4FD96
:104FD00004F8010FBC42F5D14046BDE8F08700BFA0
:104FE000B80C01007C9CFF1FD80C0100A007010039
:104FF00030B587B00446154B186802909B88ADF811
:105000000C30204604A90622FFF77CFF0546C8B1F4
:105010002379022B0BD90E48002100F0EDFB4FF055
:10502000FF33009304A806210A4A00F02DFC04A8CF
:1050300002A9062205F006FC20B10748002100F075
:10504000DBFB0025284607B030BD00BFC4090100C6
:10505000EC0C0100A0070100F80C01002DE9F04F55
:1050600097B081460F469046531FDBB24B2B05D9B4
:105070005048002100F0C0FB002098E002A9FFF793
:1050800041FF002800F08B80B8F105024BD40DF1F0
:105090000703002413F8015F15B95978FF2903D0DD
:1050A00001349442F6DD45E0002C4ADB16AB234484
:1050B00013F84ECCE24613F84D3C6344B3F5807FC1
:1050C00046D1631D6344434547DC04F1040BBCF146
:1050D000000F47D00025214602AA22440846531952
:1050E0001E797E550135AA45F8D15AE0A4450DDD5B
:1050F00016AB0344513B0DF107006044002213F846
:10510000011F0A44D2B28342F9D100E0002216AB5B
:105110009C441CF8503CDB4303F0FF03264C9342B5
:1051200008BF002422E04FF0000A4FF0FF35AB46E5
:10513000224C1BE04FF0000A4FF0FF35AB461F4CEE
:1051400014E04FF0000A4FF0FF35AB461B4C0DE06A
:105150004FF0FF35AB461A4C08E04FF0FF35AB4639
:10516000184C03E05D46184C00E0174C99F80430E9
:10517000012B0AD91548002100F03EFB009502A83A
:105180004146134A5B4600F07FFB2CB120460021CC
:1051900000F032FB00200AE05FFA8AF007E000200E
:1051A00005E0DC4465463B78D52BDED19EE717B0A1
:1051B000BDE8F08FE80D0100C40D0100140D0100E1
:1051C000340D01005C0D0100940D0100080E01007A
:1051D000A00701002DE9F04105468846174690F8E2
:1051E0005A305BB390F85800002101F093FC022084
:1051F00001F006FD2B79022B03D91D48002100F098
:10520000FBFA28460121FFF773FD5FB108F1FF3477
:105210007E1E58FA86F6284614F8011FFFF768FD2F
:10522000B442F8D195F85800012101F073FC4FF415
:10523000C873013B7FF4FDAFBDE8F081022001F0AF
:10524000DFFC0C48242100F0F1FD67B108F1FF34C8
:105250007E1E58FA86F6074D284614F8011F00F006
:105260007FFCB442F8D1034800F002FFBDE8F081B2
:10527000140E01007C9CFF1F10B588B00446037912
:105280001BB14148002100F0B7FA94F85900012100
:1052900001F040FC0A2001F0B3FC94F85900002111
:1052A00001F038FC4FF4C87001F0AAFC94F85900E2
:1052B000012101F02FFC0A2001F0A2FC94F85A30E1
:1052C000002B5BD094F85B30002B3DD000F0E4FB6A
:1052D0002E4B1B78002B28D072B62C4B1B7813F06A
:1052E000010F07D02A4B19682A4A12680A402A4936
:1052F0000A601A60254B1B7813F0020F07D0274B6A
:105300001968244A52680A4023494A601A601F4BB0
:105310001B7813F0040F07D0214B19681D4A9268BF
:105320000A401D498A601A6062B61E4BDA681E4B3D
:105330009A4209D01B4B1D4A1A601B4ADA6002F1DF
:1053400080421A611A4A1A6003A85521142205F0F6
:105350000DFB204603A91422FFF73CFF2379012B04
:105360000FD91448002100F047FA4FF0FF330093A3
:1053700003A81421104A00F087FA02E00F4800F059
:10538000A3FC08B010BD00BF380E0100E49BFF1F56
:1053900080E100E0CC9BFF1FD89BFF1F84E100E071
:1053A00088E100E000C002400320013901401F00F5
:1053B00000001F80480E0100A00701007C9CFF1F19
:1053C0002DE9F0419AB08046174600238DF80C3045
:1053D0008DF80D30FF238DF80E30531C8DF80F30F3
:1053E000D3438DF81030D4238DF8113022B9062024
:1053F0000022134611460CE0501EC0B2461C00238A
:1054000003AC1C44CD5CA5710133B342F8D1073025
:10541000EEE71AAC224412F85C2C1144C9B20133F5
:10542000DBB21A468342F4DB23460344C94303F844
:105430005C1C841C002203F85B2C404603A9E2B2EA
:10544000FFF7C8FE98F80430012B0BD9074800215C
:1054500000F0D2F90637009703A82146044A052335
:1054600000F012FA1AB0BDE8F08100BF600E010032
:10547000A007010010B50446FFF7A2FF2046FFF782
:10548000B7FD10BD2DE9F8430446894690461F46F6
:10549000007918B11648002100F0AEF92546022027
:1054A00005F8050F204629460122FFF7E3FF0646CF
:1054B000D0B1204629460D22FFF7D0FD062802D1A3
:1054C000A379032B05D00B48002100F095F90026A5
:1054D0000AE0E37989F80030237A88F80030637AAB
:1054E0003B70A27A089B1A703046BDE8F88300BF73
:1054F0006C0E01008C0E010070B5044603791BB1DF
:105500001148002100F078F9142262710123A3717F
:10551000E2712372651D204629460422FFF7AAFF87
:10552000064670B1204629460922FFF797FD02285A
:1055300002D1A379152B04D00448002100F05CF9B6
:105540000026304670BD00BFA80E0100BC0E010051
:1055500070B5044603791BB11248002100F04CF9E4
:10556000322363710522A271FF23E37101232372A9
:1055700003236372A51820462946FFF77BFF0646E2
:1055800070B1204629460922FFF768FD022802D1A2
:10559000A379332B04D00448002100F02DF9002614
:1055A000304670BDD00E0100F80E010070B5044603
:1055B00003791BB11148002100F01EF932236371F9
:1055C0000123A3710023E371651D204629460322B0
:1055D000FFF750FF064670B1204629460922FFF723
:1055E0003DFD022802D1A379332B04D004480021C9
:1055F00000F002F90026304670BD00BF200F010008
:105600003C0F01002DE9F04796B006460F46904644
:10561000994603791BB16F48002100F0EDF8002591
:1056200088F8005089F800503C4604F8015B7D7012
:10563000013404F8015B04F8015B04F8015B04F831
:10564000015B04F8015B25704A2373710123B37178
:10565000F571751D304629460322FFF70BFF0446FE
:10566000002800F0B280304629461C22FFF7F6FCE5
:10567000022802D9B3794B2B05D05748002100F0FE
:10568000BBF80024A1E0F57933793BB15348002100
:1056900000F0B2F82846524900F0C6F8012D40F05B
:1056A0009480357B042D7BD0072D64D04D4800219C
:1056B00000F0A2F828464A4900F0B6F885E0B5F5B2
:1056C000517F7FD1B8F1200F7CD1012389F80030C0
:1056D00078E0B5F5417F08D1B8F1200F08D1032358
:1056E00089F800304FF0040A04E04FF0040A01E0AA
:1056F0004FF0040A3079002867D03B48002100F0C1
:105700007BF84FF0FF33009338465146344A00F09F
:10571000BBF802A835492A46434605F06DFB99F8C7
:105720000030012B11D102AF384605F00BFC864644
:105730003E182F4D0FCD47F80E007160B260F36038
:105740002A88AB783282B37410E0032B0ED102AFFB
:10575000384605F0F7FB86463E18264D0FCD47F834
:105760000E007160B260F3602868306102A81C49C5
:1057700000F042F829E0334653F80D2F3A609A883A
:105780009B79BA80BB71072388F80030757AB37AA9
:1057900043EA052596F80B803A78802A8FD111E0EC
:1057A000D6F80D303B60042388F80030757AB37A60
:1057B00043EA052596F80B803B78802B89D04FF083
:1057C000040A97E74FF0070A94E7204616B0BDE8B1
:1057D000F08700BF800F0100A00F0100C00F010083
:1057E000A0070100D00F0100F40F01000410010018
:1057F0002C1001004010010070B505460C4605F064
:10580000A1FB0246074801684E682946B04744B1EB
:10581000204605F097FB0246024801684D68214684
:10582000A84770BD189EFF1F10B586B002460C46F3
:1058300001A8044905F0E0FA01A82146FFF7DCFFC2
:1058400006B010BDE810010010B586B002460C4647
:1058500001A8044905F0D0FA01A82146FFF7CCFFC2
:1058600006B010BDEC10010010B586B002460C4623
:1058700001A8044905F0C0FA01A82146FFF7BCFFC2
:1058800006B010BDFC1001002DE9F84F0546924608
:105890001F46DDF828800E46F1B10024DFF8509055
:1058A000DFF850B0BC4204D110480021FFF7A4FF3C
:1058B0000BE0444504D158460021FFF79DFF04E06A
:1058C0001CB148460021FFF797FF285D0021FFF734
:1058D000BBFF0134B442E5D1BAF1000F03D050460A
:1058E0000021FFF789FFBDE8F88F00BF0411010018
:1058F000B4F60000A80901002DE9F0478AB09246ED
:105900004EF66022002304F0E3F904460D463C22E3
:10591000002304F0DDF906460F461822002304F0A8
:10592000D7F98046304639461822002304F0D0F9D2
:105930001646204629463C22002304F0C9F900926D
:1059400002A806494246334605F056FA02A85146D7
:10595000FFF752FF0AB0BDE8F08700BF0811010051
:1059600030B40A4B18680A4B1B68834203D9094BB1
:105970001A6801321A60064B186006490B6800224B
:1059800042EA00042046194630BC7047209DFF1FA4
:10599000C89BFF1FC49BFF1F70B4002B07DD0024B2
:1059A000165D0D5D7540055501349C42F8D170BC03
:1059B000704700BF30B4002A07DD0023CD5CC45C13
:1059C0006C40C45401339342F8D130BC704700BFDF
:1059D00070B506460D46541E0131224600F056FBB6
:1059E0002B78335570BD00BF30B44B1E002B0DDD3E
:1059F000431C45181A460133147812F8012C520042
:105A000042EAE41203F8022CAB42F3D10139435CC1
:105A10005B00435430BC704710B4094B1B6800292D
:105A20000ADD02460844074C44F2A71102F8013B84
:105A300004FB03138242F9D15DF8044B704700BFA9
:105A4000209DFF1F1DF3010070B4002910DD0446E6
:105A500046180825084814F8013B5A402B4602F026
:105A60000101520801B14240013BF8D1B442F2D1E8
:105A7000104670BC704700BF2083B8ED38B515469E
:105A80001C464FF0FF32FFF7DFFF02462846214653
:105A9000FFF7DAFF38BD00BF184B1A6842F4805296
:105AA0001A60174B174A1A60174ADA6002F18042EF
:105AB0001A61164A1A60164B1B7813F0010F07BFC4
:105AC0004FF41072134B4FF40072134B1A60104BCB
:105AD0001B7813F0020F4FF400720CBF0F4B104BEA
